:020000040800F2
:1000000010050020A901000805190008FD180008C6
:1000100001190008BD020008C91A0008000000000C
:100020000000000000000000000000000D190008A2
:10003000C102000800000000091900081119000899
:10004000C3010008C3010008C3010008C301000880
:10005000C3010008C3010008C3010008C301000870
:10006000C3010008C3010008C3010008C301000860
:10007000C3010008C3010008C3010008C301000850
:10008000C3010008C3010008C3010008000000000C
:10009000000000000000000000000000C301000894
:1000A000C3010008C3010008C3010008C301000820
:1000B000C3010008C3010008C3010008C301000810
:1000C000C3010008C3010008C3010008C301000800
:1000D000C3010008C3010008C301000800000000BC
:1000E000C3010008C3010008C301000800000000AC
:1000F000000000000000000000000000C301000834
:1001000000000000C3010008C3010008C30100088B
:1001100000000000000000000000000000000000DF
:10012000C3010008C3010008C3010008C30100089F
:10013000C3010008000000000000000000000000F3
:10014000000000000000000000000000C3010008E3
:10015000C3010008C3010008C3010008C30100086F
:10016000C3010008C30100080000000000000000F7
:10017000000000000000000000000000000000007F
:1001800000000000C30100080000000000000000A3
:10019000C3010008DFF80CD000F07EF800480047EB
:1001A000011E000810050020064880470648004749
:1001B000FEE7FEE7FEE7FEE7FEE7FEE7FEE7FEE717
:1001C000FEE7FEE7D1190008950100082DE9F05F70
:1001D0000546002092469B468846064681464024B6
:1001E0001BE0284641464746224600F045F8534664
:1001F0005A46C01A914110D311461846224600F0C3
:100200002CF82D1A67EB01084F46224601200021E9
:1002100000F023F817EB00094E41201EA4F1010461
:10022000DFDC484631462A464346BDE8F09F30B5FC
:100230000B46014600202022012409E021FA02F5A4
:100240009D4205D303FA02F5491B04FA02F528443E
:10025000151EA2F10102F1DC30BD202A04DB203A98
:1002600000FA02F1002070479140C2F1200320FA09
:1002700003F3194390407047202A04DB203A21FA07
:1002800002F00021704721FA02F3D040C2F12002AF
:100290009140084319467047064C074D06E0E06858
:1002A00040F0010394E8070098471034AC42F6D3BD
:1002B000FFF774FF7823000898230008FEE700008A
:1002C00070470000B0B5044600F0F4F8054640F26F
:1002D0000000C2F200000078611C18BF044400BF97
:1002E00000F0E8F8401BA042FAD3B0BD2DE9F04F72
:1002F00082B000F13E4241F2000502F1FF77C4F204
:10030000020507224FEAB726A84208BF0422042E9E
:1003100038BF4FEAB7224FF0010E002400274FF0FC
:100320000008009208E000BF023708F10108202F02
:1003300004F1040400F0B4800E680EFA08F916EA1D
:10034000090FF1D0D1F804A00AF0030BABF10106BC
:10035000012E19D80322866802FA07FECA6826EA27
:100360000E06BA40324382604268CAF3001522EAA0
:10037000090205FA08F54FEA480C6FEA0E064FF03D
:10038000010E2A4342600BE00322BA40D643BBF180
:10039000030FBC4604D1BC464FF0030B24E000BF62
:1003A000C2688D68324005FA0CF52A43BBF1020F92
:1003B000C26019D16FF0030202EA5802024404F04D
:1003C0001C030F25D2F820E005FA03FA0D692EEA86
:1003D0000A0E05FA03F343EA0E031362D1F804A0F0
:1003E0004FF0010E0AF0030B02680BFA0CF33240D7
:1003F0001A431AF4403F026096D0002243F64403A9
:100400000192C4F202031A6843F6004C42F480429F
:100410001A601A68C4F2010C02F480420192019A37
:1004200028F003024FF6084A6244CFF6FF7A52F8EA
:100430000A3004F00C060F25B540AB43009D05FAC9
:1004400006F6334342F80A30DCF800204B6842EAF3
:100450000906DD0358BF22EA0906CCF80060DCF883
:1004600004209D0342EA090658BF22EA0906CCF897
:100470000460DCF80820DD0242EA090643F60C4578
:1004800058BF22EA0906CCF80860C4F201052A68C0
:100490009B0242EA090658BF22EA09062E6043E79A
:1004A00002B0BDE8F08F0000002A08BF0904816196
:1004B0007047000040F20C10C2F200000068704764
:1004C00070B5B8B3044690F83D0028B9002084F810
:1004D0003C00204600F0EEFD242084F83D0020681A
:1004E000016821F001010160016841F400410160EF
:1004F000016821F40041016000F06CFF48F2804186
:10050000C0F21E0140F60013D4F804E088424FF018
:100510000001C0F23D0348F2A16C4FF0000238BF69
:1005200001219842C0F2010C38BF0122E64538BFD4
:100530000A460AB1012070BD4DF68361C4F21B3139
:10054000A0FB01122168950C4B684FF4967623F0BE
:100550003F0343EA9243754344F6D3564B60C1F2DE
:1005600062060B6AA5FB0656B50923F03F03E64574
:1005700038BF950C6A1C1A430A62CA6948F2A06621
:100580004CF6FF73C0F20106B64522EA03020BD80F
:1005900001384FEA4E03B0FBF3F001306FF31F3028
:1005A000042898BF04201EE0A368013863B1192312
:1005B0000EFB03F3B0FBF3F001306FF31F3078B1A3
:1005C00000F5804008E000BF0EEB4E03B0FBF3F0F7
:1005D00001306FF31F3028B100F5004003E000BF89
:1005E000012000E001201043C8610868D4E9072316
:1005F00020F0C000104318430860886848F2FF32BA
:1006000004F10C0690434CCE18431043A569886052
:10061000C86820F0FF0030432843C860086840F0F5
:100620000100086000202021206484F83D10206330
:1006300084F83E0070BD00002DE9F04182B01F46F5
:10064000164688460446FFF735FF94F83D102029EA
:100650001CD1054620688169890713D5FFF72AFF59
:10066000401B1928F6D900202021206384F83D1072
:1006700084F83E00216C41F02001216484F83C00A4
:1006800004E000BF94F83C10012903D1022002B01D
:10069000BDE8F081012184F83C100168C90703D14D
:1006A000016841F001010160016821F4006101600D
:1006B000222184F83D10102184F83E10002121648D
:1006C00066626785618D21850021CFF6FF71E16249
:1006D000E16A026811F5803F42F48062026018BF4F
:1006E000012919D1016841F4807101604169089EB6
:1006F000C90724D1711C18D0002E00F0CB8000BF98
:10070000FFF7D8FE401BB04200F2C6802068416966
:10071000C907F5D013E000BF0829E3D0216B1129E8
:10072000E0D0E3E74169C90709D14169C90706D1AA
:100730004169C90704BF41695FEAC171F2D021690B
:10074000B1F5804F08D148F00101C9B2016141699A
:10075000890740F1CC8003E1062101EAD81707F1AF
:10076000F00101614169090738D44169721C01F443
:10077000806113D0002940F0EA80002E00F0108242
:10078000FFF798FE401BB04200F20C8220684169DE
:10079000090723D441694905F2D5D8E0002940F082
:1007A000D6804169090719D44169490500F1CF8014
:1007B0004169090712D44169490500F1C8804169BE
:1007C00009070BD44169490500F1C1804169090756
:1007D00004D441694905E4D5B9E000BF5FFA88F166
:1007E00001614169890739D44169721C01F4806152
:1007F00014D0002940F0AB80002E00F0D181FFF72B
:1008000059FE401BB04200F2CD8120684169890742
:1008100024D441694905F2D599E000BF002940F090
:1008200096804169890719D44169490500F18F8093
:100830004169890712D44169490500F188804169FD
:1008400089070BD44169490500F181804169890715
:1008500004D441694905E4D579E000BF0021019144
:1008600041690191816901910199016841F48071A7
:1008700001604169C90734D1711C28D056B1FFF716
:1008800019FE401BB04207D820684169C907F6D05D
:1008900027E000BFFFF70EFE00202021206384F830
:1008A0003D1084F83E00216C41F020012164216854
:1008B00084F83C000868C00544BF4FF40070206411
:1008C000012002B0BDE8F0814169C90709D1416941
:1008D000C90706D14169C90704BF41695FEAC1710F
:1008E000F2D047F0F10101614169890738D44169CB
:1008F000721C01F4806111D049BB002E00F05081C0
:10090000FFF7D8FD401BB04200F24C8120684169DE
:10091000890725D441694905F2D518E0B9B941697B
:1009200089071DD44169490511D44169890717D444
:10093000416949050BD44169890711D441694905C9
:1009400005D4416989070BD441694905E7D5016898
:1009500041F4007101606FF480614161042022E183
:10096000218D99B1022927D001292DD1026822F4C5
:1009700080620260002201924269019282690192C2
:10098000019A026842F40072026028E0002101919D
:1009900041690191816901910199016841F40071F6
:1009A0000160202084F83D00002084F83E0084F897
:1009B0003C0002B0BDE8F081026822F4806202606F
:1009C000026842F4006202E0026842F4806202605F
:1009D000002201924269019280690190019888B2D7
:1009E000032817D802283FD0012851D1002E00F04B
:1009F00099802068014651F8142F520600F1968024
:100A00000868C00600F1F280FFF754FD401BB042B9
:100A1000EFD9E0E086B100BF2068014651F8142FFD
:100A200052060ED40868C00600F1E080FFF742FDD0
:100A3000401BB042F0D9CEE020684169490640F140
:100A4000C3800069616A0870606A218D01300139D4
:100A5000606221852268638D013B638553695B0772
:100A600070D51169017064E020684169490745D477
:100A7000711C6BD0002E00F0CD80FFF71BFD401BDA
:100A8000B04200F2C980206841694907F5D535E0D8
:100A90002068416949070ED4711C65D0002E00F012
:100AA000B980FFF707FD401BB04200F2B580206817
:100AB00041694907F5D5016821F480610160006949
:100AC000616A0870606A218D013001396062218598
:100AD0002068618D01396185416949070ED4711C17
:100AE00050D0002E00F09680FFF7E4FC401BB0428F
:100AF00000F29280206841694907F5D5016841F408
:100B0000007101600069616A0870606A2268411CB6
:100B10006162218D01392185618D013961851169FC
:100B2000417006E02068416949064DD50069616A57
:100B30000870606A218D0130013960622185608D05
:100B40000138608508047FF44AAF2AE74169490704
:100B5000D4D4416949075CBF41695FEA4171CDD492
:100B600041694907F2D5C9E741694907A3D44169F9
:100B700049075CBF41695FEA41719CD441694907FB
:100B8000F2D598E741694907B8D4416949075CBF84
:100B900041695FEA4171B1D441694907F2D5ADE7D6
:100BA000FFF788FC202000212022216384F83D20CB
:100BB00084F83E10226C1043206484F83C1001201D
:100BC00002B0BDE8F08100BF50F8141FC90601460D
:100BD0000CD4FFF76FFC00202021206384F83D1027
:100BE00084F83E00206C40F020000AE06FF0100016
:100BF000086000202021206384F83D1084F83E0026
:100C0000206C2064002084F83C00012002B0BDE884
:100C1000F08100BFFFF74EFC00202021206384F804
:100C20003D1084F83E00216C41F02001216484F8DD
:100C30003C00012002B0BDE8F08100002DE9F04346
:100C400081B01F46164688460446FFF733FC94F8E9
:100C50003D10202920D1054620688169890717D5D4
:100C6000FFF728FC401B1928F6D90020202120631B
:100C700084F83D1084F83E00216C022641F02001EA
:100C8000216484F83C00304601B0BDE8F08300BF29
:100C900094F83C10012905D10226304601B0BDE888
:100CA000F08300BF012184F83C100168C90703D11B
:100CB000016841F001010160016821F400610160F7
:100CC000212184F83D10102184F83E100021216478
:100CD00066626785618D21850021CFF6FF71E16233
:100CE000E16A11F5803F18BF012919D1016841F46B
:100CF000807101604169DDF82090C90723D119F1A5
:100D0000010116D0B9F1000F46D000BFFFF7D2FBAA
:100D1000401B484542D820684169C907F6D012E017
:100D20000829E3D0216B1229E0D0E3E74169C90724
:100D300009D14169C90706D14169C90704BF4169A1
:100D40005FEAC171F2D02169B1F5804F02D1FE2175
:100D500061E000BF062101EAD811F031016141696B
:100D6000090757D4416919F1010201F480612FD0BC
:100D7000002946D1B9F1000F00F04281FFF79AFB3C
:100D8000401B484500F23E8120684169090741D473
:100D900041694905F2D534E0FFF78CFB00202021A2
:100DA000206384F83D1084F83E00216C012641F058
:100DB00020012164216884F83C000868C00544BF14
:100DC0004FF400702064304601B0BDE8F08300BFEE
:100DD000B9B9416909071DD44169490511D441696F
:100DE000090717D4416949050BD44169090711D492
:100DF0004169490505D4416909070BD44169490591
:100E0000E7D5016841F4007101606FF480614161D0
:100E10000420F8E0FF2101EA080101614169890726
:100E20003AD4416919F1010201F4806112D051BB39
:100E3000B9F1000F00F0E080FFF73CFB401B484594
:100E400000F2DC8020684169890725D441694905A1
:100E5000F2D518E0B9B9416989071DD4416949053E
:100E600011D44169890717D4416949050BD44169F7
:100E7000890711D44169490505D4416989070BD413
:100E800041694905E7D5016841F4007101606FF4DB
:100E9000806141610420B6E000260096416900911E
:100EA000816900910099218D002900F0958009F158
:100EB0000108014651F8142F120635D4B8F1000F7D
:100EC00016D0B9F1000F00F0AF8000BF08684005F0
:100ED00000F1B280FFF7EEFA401B484500F2A9800E
:100EE0002068014651F8142F1206EFD51CE000BF10
:100EF0000A68520500F1A0800A68120614D40A6834
:100F0000520500F199800A6812060DD40A6852054C
:100F100000F192800A68120606D40A68520500F1B0
:100F20008B800A681206E3D5636A194611F8012B13
:100F300002616162618D01396185278D0146A7F1EA
:100F4000010CA4F828C051F8142F52070DD55FEA00
:100F50000C420AD05A78A7F1020C02619A1C626214
:100F6000628D013A6285A4F828C00A6852072FD41E
:100F7000B8F1000F14D0B9F1000F7BD0086840051C
:100F800000F18080FFF796FA401B484577D820682B
:100F9000014651F8142F5207F0D5B4F828C017E0D5
:100FA0000A6852056ED40A68520711D40A685205BD
:100FB00068D40A6852070BD40A68520562D40A68DA
:100FC000520705D40A6852055CD40A685207E7D56F
:100FD0005FEA0C417FF46DAF016841F4007101607C
:100FE000202084F83D0084F83E6084F83C60304660
:100FF00001B0BDE8F08300BFFFF75CFA202002E0FB
:10100000FFF758FA202000212022216384F83D2098
:1010100084F83E10226C01261043206484F83C10B2
:10102000304601B0BDE8F0830868400504D4FFF7FE
:1010300041FA202004E000BF6FF4806008600420C3
:1010400000212022216384F83D2084F83E10226C88
:101050001043206484F83C10206C042825D12068BB
:101060000126016841F400710160304601B0BDE81D
:10107000F08300BF0868400504D4FFF71BFA202066
:1010800004E000BF6FF4806008600420002120228B
:10109000216384F83D2084F83E10226C10432064C4
:1010A00084F83C10206C0428D9D00126304601B0C9
:1010B000BDE8F083B0B586B0016845F20040C4F2E7
:1010C0000000814202D006B0B0BD00BF002543F64B
:1010D00030040195C4F20204216800F5D83041F0D3
:1010E00002012160216801F00201019101994FF490
:1010F0004071019112210291012103910321049178
:101100000421059101A9FFF7F1F80095206940F449
:1011100000102061206900F400100090009806B0D3
:10112000B0BD000040F2000040F20C11C2F200001D
:10113000C2F2000100780A6810440860704700009D
:1011400080B543F60040C4F20200016841F400712A
:101150000160016841F480610160016841F48071BF
:101160000160032000F076F8002000F005F800F0A0
:1011700027F8002080BD000070B540F20006C2F2E2
:10118000000640F208013278C2F200014FF47A738F
:101190000968B3FBF2F20446B1FBF2F1084600F035
:1011A00033FB0F2C4FF0010508D838B94FF0FF3052
:1011B00021460022002500F021F87460284670BD09
:1011C00082B0002043F640010190C4F202014A6857
:1011D00042F480424A604A6802F480420192019AD5
:1011E0000090086840F080500860086800F0805067
:1011F00000900098072002B000F02CB810B54EF611
:101200000C5CCEF2000CDCF80030C3F3022E8EF042
:101210000704042C28BF0424BEF103034FF0FF3E53
:101220000EFA04F438BF0023A14399400EFA03F3E9
:101230009A43114300F00F02043A624409010C3250
:1012400000F16043B0F1FF3FC8BF03F56442117085
:1012500010BD00004EF60C51CEF200010A684FF6A8
:10126000FF031A4060F30A2242F0806040F0FD70F4
:10127000086070472DE9F041002800F08B8043F6AC
:101280000808C4F202080446D8F8F8030D4600F036
:101290000700884207D288F8F853D8F8F80300F01E
:1012A0000700A84276D12068810717D5410705D5E8
:1012B000D8F8001041F4E051C8F80010010705D536
:1012C000D8F8001041F46041C8F80010D8F80010B8
:1012D000A26821F0F0011143C8F80010C0073FD107
:1012E000D8F8F80300F00700A84207D988F8F853A7
:1012F000D8F8F80300F00700A8424BD12068410756
:1013000007D5D8F80010E26821F4E0511143C8F87D
:101310000010000708D5D8F80000216920F46040CB
:1013200040EAC100C8F8000000F07CF8D8F80010CE
:1013300042F24C32C1F30311C0F60002515C40F29C
:10134000080220FA01F140F20400C2F20000006835
:10135000C2F200021160FFF70FFF0020BDE8F0812C
:101360006068811E022907D258F8081C89015CBFF9
:101370000120BDE8F08111E0012807D158F8081CD0
:1013800089035CBF0120BDE8F08107E058F8081C24
:10139000890703D40120BDE8F08100BFD8F8001010
:1013A00021F003010843C8F80000FFF783F8064660
:1013B00041F28837D8F80000616800F00C00B0EB0B
:1013C000810F8DD0FFF776F8801BB842F2D9032049
:1013D000BDE8F08140F2080043F60801C2F20000C7
:1013E000C4F202010068096842F25C32C1F3822152
:1013F000C0F60002515CC8407047000040F208008F
:1014000043F60801C2F20000C4F202010068096854
:1014100042F25C32C1F34231C0F60002515CC84076
:101420007047000010B543F60404C4F2020460687B
:1014300000F00C0142F200400829C0F2F40007D08D
:10144000042918BF10BD41F20020C0F27A0010BD7F
:10145000216801F03F02216823684902C3F3881123
:1014600006D4A1FB00010023FEF7B0FE07E000BF99
:1014700041F20020C0F27A004843B0FBF2F021684C
:101480000222C1F3014102EB4101B0FBF1F010BDBA
:101490002DE9F04182B000286AD00446007843F676
:1014A0000006C007C4F202060BD0B06800F00C00C2
:1014B000042840F0A1803068800302D560680028CD
:1014C00056D0207880071AD5B06810F00C0F09D0DC
:1014D000B06800F00C00082840F0A8807068400256
:1014E00000F1A4803068800702D5E06801283FD170
:1014F0003068216920F0F80040EAC10030602078AF
:10150000000739D4207840074ED4A5695DB3B06890
:1015100000F00C00082840F0BD80012D28D0706834
:10152000E16900F480028A4222D1216A00F03F0280
:101530008A421DD147F6C071626A0140B1EB821F39
:1015400016D1A26A0023CFF6FF7303EBC23200F478
:1015500040316FF30F0291420AD1E16A00F07060EE
:10156000B0EB016F04D1002002B0BDE8F08100BFF4
:10157000012002B0BDE8F0816069002840F200005F
:10158000C4F2472076D00121C0F8801EFEF792FFFA
:10159000054600BF706F8007B4D4FEF78BFF401B79
:1015A0000228F7D9DDE000BF306C10F080580AD176
:1015B00000200190306C40F080503064306C00F0BE
:1015C00080500190019847F20007C4F20007386884
:1015D000C00541D4386840F480703860FEF76AFF77
:1015E000054600BF3868C00536D4FEF763FF401BD0
:1015F0000228F7D9B5E000BFB06800F00C00082859
:1016000003D1706840023FF556AF6068B0F5803F87
:1016100007D0B0F5A02F40F08D80306840F48020D6
:101620003060306840F4803030608DE0E068002841
:1016300052D00020C4F2472001210160FEF73AFF9A
:10164000054600BF306880073FF552AFFEF732FF16
:10165000401B0228F6D984E0A068012805D005289F
:101660004ED1306F40F004003067306F40F0010021
:1016700030674FE00021C0F8801EFEF71BFF0546D3
:10168000706F80077FF53EAFFEF714FF401B022806
:10169000F6D966E00027C4F2472700203866FEF737
:1016A00009FF022D05460BD1306880015ED5FEF79B
:1016B00001FF401B02284FF00300F5D954E700BF9B
:1016C000306880017FF54FAFFEF7F4FE401B022823
:1016D0004FF00300F4D947E70020C4F2472000216F
:1016E0000160FEF7E7FE0546306880077FF507AF2B
:1016F000FEF7E0FE401B02284FF00300F4D933E769
:10170000316F002821F001013167316F21F00401B0
:1017100031674DD0FEF7CEFE054641F2883700BF57
:10172000306F800756D4FEF7C5FE401BB842F7D98C
:1017300017E000BF3168002821F480313160316842
:1017400021F4802131604FD0FEF7B4FE054600BF82
:10175000306880033FF5B5AEFEF7ACFE401B642851
:10176000F6D9032002B0BDE8F08100BF04F11C05EA
:101770002FCD08430021CFF6FF7140EA821001EB24
:10178000C3316FF30F0140EA056008437060012028
:101790003866FEF78FFE0446306880013FF5E3AE01
:1017A000FEF788FE001B02284FF00300F4D9DBE6A9
:1017B000FEF780FE054641F2883700BF306F800794
:1017C00008D5FEF777FE401BB8424FF00300F5D96D
:1017D000CAE600BFB8F1000F7FF497AE306C20F07E
:1017E0008050306491E600BFFEF764FE054600BFFE
:1017F000306880037FF565AEFEF75CFE401B642811
:101800004FF00300F4D9AFE6411E0020B0EB116F9A
:101810001CBF012070474EF21002CEF20002516050
:101820004EF62351CEF20001F0230B700721906099
:1018300011607047002804BF0120704710B50446AE
:1018400090F83D0028B9002084F83C00204600F0C4
:1018500021F8242084F83D002068C16821F400515B
:10186000C160204600F0BEF82068016921F4904173
:101870000161416921F02A014161C16841F40051CF
:10188000C16000202021206484F83D1084F83E10BF
:1018900010BD000080B586B0016844F20040C4F27B
:1018A0000000814202D006B080BD00BF002143F697
:1018B00030020191C4F20202136900F5DE3043F4F4
:1018C00000331361136903F400330193019B019109
:1018D000136843F001031360126802F001020192E1
:1018E000019A0C2201920222CDE9022104910721E2
:1018F000059101A9FEF7FAFC06B080BDFEE70000E5
:10190000FEE70000FEE7000070470000704700009F
:1019100040F2B400C2F20000016801310160FFF73B
:1019200001BC0000B0B592B0002443F640000B9417
:10193000CDE90944CDE907440594CDE90344CDE957
:1019400001440094C4F202000168022541F0805174
:101950000160006800F080500090009847F200009D
:101960000094C4F20000016865F38F3101600068E3
:1019700000F44040009000980120099010200A9047
:101980000E904FF4A8700F90042010900720119033
:1019900006A80695CDE90C54FFF77AFD20B1EFF3C8
:1019A000108072B6FEE700BF0F20CDE901054FF4AD
:1019B0008050CDE9040401A802210394FFF75AFCEA
:1019C00020B1EFF3108072B6FEE700BF12B0B0BDD9
:1019D0004EF68850CEF20000016841F470010160BB
:1019E0007047000010B504460068D4E902C22369BC
:1019F000016921F4405111430161626943EA0C011C
:101A0000E3691143C268194349F20C639A431143D5
:101A1000C1604169A26921F4407141F20043114360
:101A200040F48062C4F201039A42416102D1FFF79F
:101A3000E5FC01E0FFF7CEFCE16963681922B1F52E
:101A4000004FA0FB02011FD15A00DB0FFEF7BEFBC7
:101A500048F21F51C5F2EB11A0FB01235A096FF0A8
:101A6000630302FB0300322303EBC000A0FB010170
:101A70004FF4F87000EA111000EB0210C1F34211AC
:101A800008442168886010BD9A009B0FFEF79EFBFA
:101A900048F21F51C5F2EB11A0FB01235A096FF068
:101AA000630302FB0300322303EB0010A0FB0101E0
:101AB000F02000EA511000EB0210C1F3431108447A
:101AC0002168886010BD0000FEE70000F0B583B01B
:101AD000044600200E46ADF80A0040F6B8370DF176
:101AE0000A020846A42101230097FFF7A7F8022065
:101AF000FEF7E8FB40F2A805C2F200053046A5213A
:101B00002A4606230097FEF797FD2F79287887F05D
:101B1000170717376978AA78EB78AF726F7980F07A
:101B2000170081F0170182F0170283F0170387F086
:101B3000170717301731173217331737A871E971A4
:101B40002A726B72EF7220716171E87AC0F3400102
:101B5000A17100F00101E171D1B2C0F3810242EA4A
:101B600081012181D9B2C0F3011242EA8101618170
:101B7000A97A890041EA9010A08103B0F0BD00006D
:101B800080B582B04022ADF806200022C0E90012E4
:101B90008260828140F6B83C0DF106020846A4211D
:101BA0000223CDF800C0FFF749F802B080BD000065
:101BB00070B584B048F68C0040F2B804C0F60C0052
:101BC000C2F200040290642602AA20464E21042399
:101BD0000096FFF733F842F26435C0F60005284658
:101BE00000F07EF84CF6CC00C0F60C00039003AA7F
:101BF00020464E2104230096FFF720F8284600F0E7
:101C00006FF804B070BD00002DE9F04182B040F6DD
:101C10000C0040F2B804C2F62C00C2F200040DF130
:101C200004080190642620464E2142460423009673
:101C3000FFF704F842F62C00C8F68C00019001AAC8
:101C400020464E2104230096FEF7F8FF40F60C00D4
:101C5000CCF6CC00019001AA20464E210423009628
:101C6000FEF7ECFF48F68C00C0F60C00019001AACC
:101C700020464E2104230096FEF7E0FF44F64C0078
:101C8000C0F60C00019001AA20464E2104230096C4
:101C9000FEF7D4FF40F20C054FF0FF37C2F200050B
:101CA000E8194078042320F00F01000101F10D0232
:101CB00009318DF8051000F10D0109308DF804206F
:101CC0008DF806108DF8070020464E2142460096FA
:101CD000FEF7B4FF01372F2FE2D102B0BDE8F0814B
:101CE0002DE9F04182B004460078D8B340F2B8053F
:101CF00042F62D186427C2F2000501AEC5F65D1844
:101D00001CE000BF00294AD020F00F01000101F1C2
:101D10000D0209318DF8051000F10D0109308DF823
:101D200004208DF806108DF8070028464E21324613
:101D300004230097FEF782FF14F8010FC1B2252992
:101D4000E0D114F8010F3038C1B20A29DCD9284695
:101D50004E2132460423CDF804800097FEF76EFF33
:101D60002078D1E748F68C0040F2B804C2F62C0087
:101D7000C2F200040190642501AA20464E210423EA
:101D80000095FEF75BFF42F62D10C0F60D10019096
:101D900001AA20464E2104230095FEF74FFF02B012
:101DA000BDE8F08110B582B00F29044622D8012A7F
:101DB00008BF41F0400101F07000090100F18C0200
:101DC00088308DF8050001F10C008DF8060001F156
:101DD00008008DF8070040F2B8008DF804204FF09D
:101DE000640CC2F2000001AA4E210423CDF800C009
:101DF000FEF724FF2046FFF773FF02B010BD00007E
:101E000088B00024C4F20204FFF79AF9FFF78AFDB4
:101E1000002643F63000CDE906660296C4F20200C1
:101E20000168002241F0040101600168202701F0EF
:101E30000401029102990296016841F0800101605B
:101E4000016801F08001029102990296016841F057
:101E500001010160016801F00101029102990296FD
:101E6000016841F0020101600068202100F00200D9
:101E7000029002982046FEF717FB4FF400500390A3
:101E80004FF4041003ADCDE9040604F500602946C3
:101E9000FEF72CFA0120CDE90406204629460397D7
:101EA0000696FEF723FA40F2B800A4F5D631C2F246
:101EB000000048F2A0624FF48043C0F2010280E8C3
:101EC0004600C0E90363C0E90566C0E90766FEF79E
:101ED000F7FA28B1EFF3108072B600BFFEE700BF3B
:101EE000A4F5DE3140F24004C2F20004204640F87E
:101EF000241F4FF4E1310C22C0E90116C0E903664A
:101F0000C0E90526C661FFF795FC28B1EFF3108004
:101F100072B600BFFEE700BFFFF776FEFFF748FE90
:101F20000220FEF7CFF940F2B808C2F200082046BE
:101F30004146FFF725FE04F110060FF24C0917A5E4
:101F400020464146FFF7C2FD22896389A7893046B2
:101F50004946009700F030F8304600210122FFF793
:101F600021FFA07922796379E779009030462946EC
:101F7000019700F021F8304600210022FFF712FF00
:101F80006420FEF79FF9DBE75825303364202059A1
:101F90002530336420205A25303364004A582530D8
:101FA0003364204A59253033642043253031645A44
:101FB00025303164000000000FB4084B10B504A9AF
:101FC00002AA039800F01CF8044602A9002000F0C1
:101FD000B8F9204610BC5DF814FB0000432300084C
:101FE00002E008C8121F08C1002AFAD170477047E2
:101FF000002001E001C1121F002AFBD17047000040
:102000002DE9FF4F8BB088460546002606E02528BF
:102010000BD0DDE90D1290476D1C761C2878002846
:10202000F5D10FB03046BDE8F08F0024A146A2469E
:102030000122AE4900E0044315F8013F203B02FABB
:1020400003F00842F7D128782A2810D06FF02F0229
:102050002878A0F13001092915D809EB890102EB94
:10206000410144F0020400EB01096D1CF0E758F84F
:10207000041B5FEA010903D544F40054C9F10009C7
:1020800044F002046D1C28782E2817D115F8010F92
:1020900044F004042A280ED06FF02F022878A0F113
:1020A000300109290AD80AEB8A0102EB410100EB51
:1020B000010A6D1CF2E758F804AB6D1C28786C28F7
:1020C0000FD006DC4C2817D068280DD06A2814D110
:1020D00004E0742810D07A280FD10DE044F40014E5
:1020E0000AE044F4801401E044F440146978814229
:1020F00002D104F580146D1C6D1C2878692865D008
:1021000006DC00288DD0632827D0642806D15DE046
:102110006E2808D073282AD0752877D0DDE90D12F3
:102120009047761CE0E0C4F30250022809D003284F
:102130000DD0D8F8001004280DD00E6008F1040866
:10214000D2E0D8F80010F217C1E90062F6E7D8F83B
:1021500000100E80F2E70E70F0E718F8041B8DF8FF
:10216000001000208DF80100EB46012003E058F834
:1021700004BB4FF0FF3061074FF0000701D40AE0C5
:102180007F1C57450DDA8742FADB1BF80710002940
:10219000F6D106E07F1C8742FCDB1BF80710002904
:1021A000F8D1DDE90D23A9EB07008146214600F0B7
:1021B000B1F83044C61904E0DDE90D121BF8010B3B
:1021C00090477F1EF8D22146484688E058F8040B15
:1021D000C4F302514FF00A0B032900D100B20429C5
:1021E00000D140B2002802DA40422D2102E0210550
:1021F00005D52B218DF82410012104E006E0E1072C
:1022000010D02021F6E708AF089113E058F8040B2E
:10221000C4F302514FF00A0B032900D180B2042904
:1022200000D1C0B20021EEE75946FEF700F8303188
:1022300007F8011D0028F7D1ADEB070000F1200BD6
:10224000600702D524F4803401E04FF0010ADA453A
:1022500002DDAAEB0B0000E00020824600EB0B0140
:1022600008980144A9EB01000A90E00306D4DDE9D7
:102270000D2321460A9800F04DF806444FF000095E
:1022800008E009A911F80900DDE90D12904709F1EC
:102290000109761C08998945F3DBE0030CD5DDE9DB
:1022A0000D2321460A9800F035F8064404E0DDE9E4
:1022B0000D1230209047761CBAF10001AAF1010AF4
:1022C000F5DC05E0DDE90D1217F8010B9047761CEF
:1022D000BBF10001ABF1010BF4DC0A982146DDE90A
:1022E0000D2300F005F806446D1C97E6092801004F
:1022F0002DE9F041044600251E461746880404D403
:1023000005E039462020B0476D1C641EF9D52846EB
:10231000BDE8F0812DE9F041044600251E469046B7
:10232000C80301D5302700E02027880404D505E044
:1023300041463846B0476D1C641EF9D52846BDE8B5
:10234000F0810A68531C0B60107070470000000099
:102350000000000001020304060708090000000055
:1023600001020304202020202020202020202020E3
:1023700020202020000000009823000800000020FA
:1023800040000000E01F0008D823000840000020A3
:10239000D0040000F01F0008010000001000000041
:1023A0000024F400020302050404040508100814C4
:1023B000040404140E0E041F15150A100E0E041F3B
:1023C00015150A0100000000000001010004081FAB
:0823D0000804000000000000F9
:040000050800019559
:00000001FF
