:020000040800F2
:1000000010050020A9010008E9170008851500085F
:10001000E5170008BD020008AD1900080000000047
:10002000000000000000000000000000F1170008C0
:10003000C102000800000000ED170008F5170008D5
:10004000C3010008C3010008C3010008C301000880
:10005000C3010008C3010008C3010008C301000870
:10006000C3010008C3010008C3010008C301000860
:10007000C3010008C3010008C3010008C301000850
:10008000C3010008C3010008C3010008000000000C
:10009000000000000000000000000000C301000894
:1000A000C3010008C3010008C3010008C301000820
:1000B000C3010008C3010008C3010008C301000810
:1000C000C3010008C3010008C3010008C301000800
:1000D000C3010008C3010008C301000800000000BC
:1000E000C3010008C3010008C301000800000000AC
:1000F000000000000000000000000000C301000834
:1001000000000000C3010008C3010008C30100088B
:1001100000000000000000000000000000000000DF
:10012000C3010008C3010008C3010008C30100089F
:10013000C3010008000000000000000000000000F3
:10014000000000000000000000000000C3010008E3
:10015000C3010008C3010008C3010008C30100086F
:10016000C3010008C30100080000000000000000F7
:10017000000000000000000000000000000000007F
:1001800000000000C30100080000000000000000A3
:10019000C3010008DFF80CD000F07EF800480047EB
:1001A000151C000810050020064880470648004737
:1001B000FEE7FEE7FEE7FEE7FEE7FEE7FEE7FEE717
:1001C000FEE7FEE7B5180008950100082DE9F05F8D
:1001D0000546002092469B468846064681464024B6
:1001E0001BE0284641464746224600F045F8534664
:1001F0005A46C01A914110D311461846224600F0C3
:100200002CF82D1A67EB01084F46224601200021E9
:1002100000F023F817EB00094E41201EA4F1010461
:10022000DFDC484631462A464346BDE8F09F30B5FC
:100230000B46014600202022012409E021FA02F5A4
:100240009D4205D303FA02F5491B04FA02F528443E
:10025000151EA2F10102F1DC30BD202A04DB203A98
:1002600000FA02F1002070479140C2F1200320FA09
:1002700003F3194390407047202A04DB203A21FA07
:1002800002F00021704721FA02F3D040C2F12002AF
:100290009140084319467047064C074D06E0E06858
:1002A00040F0010394E8070098471034AC42F6D3BD
:1002B000FFF774FF3422000854220008FEE7000014
:1002C00070470000B0B5044600F0F4F8054640F26F
:1002D0000000C2F200000078611C18BF044400BF97
:1002E00000F0E8F8401BA042FAD3B0BD2DE9F04F72
:1002F00082B000F13E4241F2000502F1FF77C4F204
:10030000020507224FEAB726A84208BF0422042E9E
:1003100038BF4FEAB7224FF0010E002400274FF0FC
:100320000008009208E000BF023708F10108202F02
:1003300004F1040400F0B4800E680EFA08F916EA1D
:10034000090FF1D0D1F804A00AF0030BABF10106BC
:10035000012E19D80322866802FA07FECA6826EA27
:100360000E06BA40324382604268CAF3001522EAA0
:10037000090205FA08F54FEA480C6FEA0E064FF03D
:10038000010E2A4342600BE00322BA40D643BBF180
:10039000030FBC4604D1BC464FF0030B24E000BF62
:1003A000C2688D68324005FA0CF52A43BBF1020F92
:1003B000C26019D16FF0030202EA5802024404F04D
:1003C0001C030F25D2F820E005FA03FA0D692EEA86
:1003D0000A0E05FA03F343EA0E031362D1F804A0F0
:1003E0004FF0010E0AF0030B02680BFA0CF33240D7
:1003F0001A431AF4403F026096D0002243F64403A9
:100400000192C4F202031A6843F6004C42F480429F
:100410001A601A68C4F2010C02F480420192019A37
:1004200028F003024FF6084A6244CFF6FF7A52F8EA
:100430000A3004F00C060F25B540AB43009D05FAC9
:1004400006F6334342F80A30DCF800204B6842EAF3
:100450000906DD0358BF22EA0906CCF80060DCF883
:1004600004209D0342EA090658BF22EA0906CCF897
:100470000460DCF80820DD0242EA090643F60C4578
:1004800058BF22EA0906CCF80860C4F201052A68C0
:100490009B0242EA090658BF22EA09062E6043E79A
:1004A00002B0BDE8F08F0000002A08BF0904816196
:1004B0007047000040F20810C2F200000068704768
:1004C00070B5B8B3044690F83D0028B9002084F810
:1004D0003C00204600F032FC242084F83D002068D7
:1004E000016821F001010160016841F400410160EF
:1004F000016821F40041016000F0B0FD48F2804144
:10050000C0F21E0140F60013D4F804E088424FF018
:100510000001C0F23D0348F2A16C4FF0000238BF69
:1005200001219842C0F2010C38BF0122E64538BFD4
:100530000A460AB1012070BD4DF68361C4F21B3139
:10054000A0FB01122168950C4B684FF4967623F0BE
:100550003F0343EA9243754344F6D3564B60C1F2DE
:1005600062060B6AA5FB0656B50923F03F03E64574
:1005700038BF950C6A1C1A430A62CA6948F2A06621
:100580004CF6FF73C0F20106B64522EA03020BD80F
:1005900001384FEA4E03B0FBF3F001306FF31F3028
:1005A000042898BF04201EE0A368013863B1192312
:1005B0000EFB03F3B0FBF3F001306FF31F3078B1A3
:1005C00000F5804008E000BF0EEB4E03B0FBF3F0F7
:1005D00001306FF31F3028B100F5004003E000BF89
:1005E000012000E001201043C8610868D4E9072316
:1005F00020F0C000104318430860886848F2FF32BA
:1006000004F10C0690434CCE18431043A569886052
:10061000C86820F0FF0030432843C860086840F0F5
:100620000100086000202021206484F83D10206330
:1006300084F83E0070BD00002DE9F04782B01E46F0
:1006400017468A460446FFF735FF94F83D102029E7
:100650001ED1DDF82890054620688169890713D5E9
:10066000FFF728FF401B1A28F6D300202021206323
:1006700084F83D1084F83E00216C41F02001216493
:1006800084F83C0004E000BF94F83C10012903D139
:10069000022002B0BDE8F087012184F83C10016817
:1006A000C90703D1016841F001010160016840F20E
:1006B000020821F400610160222184F83D1010211C
:1006C00084F83E100021216467626685618DC0F266
:1006D00001082185A8F10211E162E16A026811F5C1
:1006E000803F42F48062026018BF012926D1016870
:1006F00041F48071016019F1010614D04169B9F12A
:10070000000F01F001011FD0B1BB00BFFFF7D2FE07
:10071000401B48451BD820684169C907F6D02BE02B
:100720004169C90728D14169C90701BF41695FEA29
:10073000C17141695FEAC171F2D01DE00829D6D0CC
:10074000216B1129D3D0D6E7B1B9FFF7B3FE002052
:100750002021206384F83D1084F83E00216C41F094
:1007600020012164216884F83C000868C00544BF6A
:100770004FF40070206442E02169B1F5804F25D12B
:100780004AF00101C9B20161204641464A462B4662
:1007900000F05AFF98BB208D002867D002287DD03A
:1007A000012840F08D802068016821F4806101609B
:1007B00000210191416901918169019101990168CB
:1007C00041F400710160012086E000BF062101EACA
:1007D000DA1707F1F001016108F1060120464A46E7
:1007E0002B4600F031FF50B920685FFA8AF10161B1
:1007F000204641464A462B4600F026FF20B1012004
:1008000002B0BDE8F08700BF002001902068416978
:100810000191816901910199016841F48071016040
:10082000C6B14169B9F1000F01F0010100F0488142
:10083000002940F04881FFF73DFE401B48453FF648
:1008400086AF20684169C907F5D03CE14169C90715
:1008500040F039814169C90701BF41695FEAC1714F
:1008600041695FEAC171F1D02DE100BF0020019024
:10087000206841690191816901910199016841F400
:1008800000710160202084F83D00002084F83E00C3
:1008900084F83C0002B0BDE8F08700BF2068016822
:1008A00021F480610160016841F400610160002170
:1008B00001914169019180690190019802200BE04A
:1008C00021680A6842F480620A60002201924A6943
:1008D000019289690191019980B2032816D80228F2
:1008E00040D001284CD1B9F1000F57D02068014603
:1008F00051F8142F520656D40868C00600F1F8804B
:10090000FFF7D8FD401B4845F0D9E6E0B9F1000FEC
:1009100010D02068014651F8142F52060FD40868F1
:10092000C00600F1E580FFF7C5FD401B4845F0D942
:10093000D3E000BF20684169490640F1C7800069E3
:10094000616A0870606A2268411C208D616201380A
:100950002085638D013B638553695B0740F1AC8063
:10096000106922E026B3B9F1000F41D02068416937
:10097000490741D4FFF79EFD401B4845F6D9ACE03E
:1009800036B3B9F1000F3FD02068416949073FD421
:10099000FFF790FD401B4845F6D99EE0206841696D
:1009A000490640F193800069616A08707BE000BFEE
:1009B0002068416949071FD4416949075CBF416903
:1009C0005FEA417118D441694907F2D514E000BFCC
:1009D0002068416949071BD4416949075CBF4169E7
:1009E0005FEA417114D441694907F2D510E000BFB4
:1009F0002068416949076ED5016841F400710160C2
:100A00000069616A087042E020684169490762D55F
:100A1000016821F4806101600069616A0870606AA0
:100A2000218D00F10100A1F1010160622185618D3C
:100A3000A1F1010161856EB1B9F1000F1AD02168F1
:100A4000486940071CD4FFF735FD401B4845F6D9DF
:100A500043E000BF21684A69520712D44A6952072D
:100A60005CBF4A695FEA42720BD44A695207F2D509
:100A700007E000BF21684A69520702D42BE000BF9B
:100A8000606A0A6842F400720A6009690170606A6B
:100A90002268411C6162218D01392185618D0139F6
:100AA000618511694170606A218D01306062481E64
:100AB0002085618D0139618501047FF40DAFE1E688
:100AC00000293FF442AE47F0F1015CE650F8141FF4
:100AD000C90601460CD4FFF7EDFC0020202120635D
:100AE00084F83D1084F83E00216C41F020010AE0BA
:100AF0006FF01000086000202021206384F83D1072
:100B000084F83E00216C216484F83C00012002B08E
:100B1000BDE8F0872DE9F04782B01E4617468A46A9
:100B20000446FFF7C7FC94F83D1020291ED1DDF8DC
:100B30002890054620688169890713D5FFF7BAFC1C
:100B4000401B1A28F6D300202021206384F83D1092
:100B500084F83E00216C41F02001216484F83C00BF
:100B600004E000BF94F83C10012903D1022002B038
:100B7000BDE8F087012184F83C100168C90703D162
:100B8000016841F001010160016840F2020821F4AE
:100B900000610160212184F83D10102184F83E108D
:100BA0000021216467626685618DC0F2010821859C
:100BB000A8F10211E162E16A11F5803F18BF012935
:100BC00040F09680016841F48071016019F10101E3
:100BD0002DD0B9F1000F23D14169C90731D1FFF7F9
:100BE00069FC00202021206384F83D1084F83E0039
:100BF000216C41F020012164216884F83C000868E0
:100C0000C00544BF4FF400702064012002B0BDE86D
:100C1000F08700BFFFF74EFC401B4845E1D8206835
:100C20004169C907F6D00CE04169C90709D141699A
:100C3000C90701BF41695FEAC17141695FEAC171DA
:100C4000F2D02169B1F5804F02D10AF0FE0110E027
:100C5000062101EADA11F031016108F106012046AE
:100C60004A462B4600F0F0FC0028CED120685FFAFF
:100C70008AF10161204641464A462B4600F0E4FCD9
:100C80000028C2D10020019020684169019180694B
:100C90000190019806E000BF204649462A4600F030
:100CA00073FC68BB208DC8B3204649462A4600F035
:100CB00039FD28BB606A2168024612F8013B0B61CE
:100CC0006262628D013A6285228D571E27854B69CB
:100CD0003F0418BF13F00403DED0437802300B61E9
:100CE0006062608D01386085901E2085D4E700BF6A
:100CF00008293FF467AF216B12293FF463AF65E722
:100D0000206C04287FF481AF2068016841F40071F1
:100D10000160012002B0BDE8F08700BF20680168D3
:100D200041F400710160202084F83D00002084F827
:100D30003E0084F83C0002B0BDE8F087B0B586B054
:100D4000016845F20040C4F20000814202D006B0C2
:100D5000B0BD00BF002543F630040195C4F2020483
:100D6000216800F5D83041F002012160216801F0CE
:100D70000201019101994FF44071019112210291F8
:100D800001210391032104910421059101A9FFF799
:100D9000ADFA0095206940F400102061206900F44C
:100DA00000100090009806B0B0BD000040F20000B6
:100DB00040F20811C2F20000C2F2000100780A6895
:100DC000104408607047000080B543F60040C4F24C
:100DD0000200016841F400710160016841F4806122
:100DE0000160016841F480710160032000F076F831
:100DF000002000F005F800F027F8002080BD00007A
:100E000070B540F20006C2F2000640F208013278E6
:100E1000C2F200014FF47A730968B3FBF2F20446A0
:100E2000B1FBF2F1084600F033FB0F2C4FF0010547
:100E300008D838B94FF0FF3021460022002500F0D5
:100E400021F87460284670BD82B0002043F640014E
:100E50000190C4F202014A6842F480424A604A6842
:100E600002F480420192019A0090086840F080509C
:100E70000860086800F0805000900098072002B0D9
:100E800000F02CB810B54EF60C5CCEF2000CDCF87D
:100E90000030C3F3022E8EF00704042C28BF042474
:100EA000BEF103034FF0FF3E0EFA04F438BF0023F7
:100EB000A14399400EFA03F39A4300F00F03043B59
:100EC0001143634409010C3300F16042B0F1FF3F6C
:100ED000C8BF02F56443197010BD00004EF60C51F6
:100EE000CEF200010A684FF6FF031A4060F30A22AF
:100EF00042F0806040F0FD70086070472DE9F041DD
:100F0000002800F08B8043F60808C4F2020804466B
:100F1000D8F8F8030D4600F00700884207D288F899
:100F2000F853D8F8F80300F00700A84276D12068FB
:100F3000810717D5410705D5D8F8001041F4E051D5
:100F4000C8F80010010705D5D8F8001041F4604139
:100F5000C8F80010D8F80010A26821F0F001114381
:100F6000C8F80010C0073FD1D8F8F80300F0070018
:100F7000A84207D988F8F853D8F8F80300F007001A
:100F8000A8424BD12068410707D5D8F80010E26885
:100F900021F4E0511143C8F80010000708D5D8F833
:100FA0000000216920F4604040EAC100C8F8000058
:100FB00000F07CF8D8F8001042F20822C1F30311C7
:100FC000C0F60002515C40F2080220FA01F140F242
:100FD0000400C2F200000068C2F200021160FFF7D4
:100FE0000FFF0020BDE8F0816068811E022907D252
:100FF00058F8081C89015CBF0120BDE8F08111E0B0
:10100000012807D158F8081C89035CBF0120BDE8FE
:10101000F08107E058F8081C890703D40120BDE8D7
:10102000F08100BFD8F8001021F003010843C8F890
:101030000000FFF73FFA064641F28837D8F8000073
:10104000616800F00C00B0EB810F8DD0FFF732FA31
:10105000801BB842F2D90320BDE8F08140F20800BD
:1010600043F60801C2F20000C4F2020100680968F8
:1010700042F21822C1F38221C0F60002515CC8403E
:101080007047000040F2080043F60801C2F2000079
:10109000C4F202010068096842F21822C1F3423129
:1010A000C0F60002515CC8407047000010B543F61E
:1010B0000404C4F20204606800F00C0142F2004033
:1010C0000829C0F2F40007D0042918BF10BD41F26E
:1010D0000020C0F27A0010BD216801F03F022168B3
:1010E00023684902C3F3881106D4A1FB0001002341
:1010F000FFF76CF807E000BF41F20020C0F27A0071
:101100004843B0FBF2F021680222C1F3014102EB37
:101110004101B0FBF1F010BD2DE9F04182B0002893
:101120006AD00446007843F60006C007C4F20206FF
:101130000BD0B06800F00C00042840F0A1803068AB
:10114000800302D56068002856D0207880071AD521
:10115000B06810F00C0F09D0B06800F00C0008283F
:1011600040F0A8807068400200F1A48030688007D9
:1011700002D5E06801283FD13068216920F0F800ED
:1011800040EAC10030602078000739D42078400759
:101190004ED4A5695DB3B06800F00C00082840F09B
:1011A000BD80012D28D07068E16900F480028A4278
:1011B00022D1216A00F03F028A421DD147F6C07158
:1011C000626A0140B1EB821F16D1A26A0023CFF6FA
:1011D000FF7303EBC23200F440316FF30F02914210
:1011E0000AD1E16A00F07060B0EB016F04D1002019
:1011F00002B0BDE8F08100BF012002B0BDE8F0817F
:101200006069002840F20000C4F2472076D0012136
:10121000C0F8801EFFF74EF9054600BF706F8007CB
:10122000B4D4FFF747F9401B0228F7D9DDE000BF2F
:10123000306C10F080580AD100200190306C40F0E2
:1012400080503064306C00F080500190019847F27B
:101250000007C4F200073868C00541D4386840F47C
:1012600080703860FFF726F9054600BF3868C00572
:1012700036D4FFF71FF9401B0228F7D9B5E000BFAD
:10128000B06800F00C00082803D1706840023FF5F8
:1012900056AF6068B0F5803F07D0B0F5A02F40F0A2
:1012A0008D80306840F480203060306840F48030B9
:1012B00030608DE0E068002852D00020C4F2472062
:1012C00001210160FFF7F6F8054600BF306880078E
:1012D0003FF552AFFFF7EEF8401B0228F6D984E045
:1012E000A068012805D005284ED1306F40F00400D9
:1012F0003067306F40F0010030674FE00021C0F8E8
:10130000801EFFF7D7F80546706F80077FF53EAF68
:10131000FFF7D0F8401B0228F6D966E00027C4F298
:10132000472700203866FFF7C5F8022D05460BD188
:10133000306880015ED5FFF7BDF8401B02284FF0F2
:101340000300F5D954E700BF306880017FF54FAF47
:10135000FFF7B0F8401B02284FF00300F4D947E72D
:101360000020C4F2472000210160FFF7A3F80546E2
:10137000306880077FF507AFFFF79CF8401B022815
:101380004FF00300F4D933E7316F002821F0010159
:101390003167316F21F0040131674DD0FFF78AF8D2
:1013A000054641F2883700BF306F800756D4FFF7FB
:1013B00081F8401BB842F7D917E000BF3168002818
:1013C00021F480313160316821F4802131604FD0C7
:1013D000FFF770F8054600BF306880033FF5B5AEF3
:1013E000FFF768F8401B6428F6D9032002B0BDE877
:1013F000F08100BF04F11C052FCD08430021CFF67A
:10140000FF7140EA821001EBC3316FF30F0140EA34
:1014100005600843706001203866FFF74BF804460A
:10142000306880013FF5E3AEFFF744F8001B022867
:101430004FF00300F4D9DBE6FFF73CF8054641F234
:10144000883700BF306F800708D5FFF733F8401B9F
:10145000B8424FF00300F5D9CAE600BFB8F1000F5B
:101460007FF497AE306C20F08050306491E600BF7E
:10147000FFF720F8054600BF306880037FF565AEB2
:10148000FFF718F8401B64284FF00300F4D9AFE6CB
:10149000411E0020B0EB116F1CBF012070474EF2BF
:1014A0001002CEF2000251604EF62351CEF200013E
:1014B000F0230B700721906011607047002804BF73
:1014C0000120704710B5044690F83D0028B900206F
:1014D00084F83C00204600F021F8242084F83D00E8
:1014E0002068C16821F40051C160204600F0ECF989
:1014F0002068016921F490410161416921F02A01CC
:101500004161C16841F40051C16000202021206484
:1015100084F83D1084F83E1010BD000080B586B000
:10152000016844F20040C4F20000814202D006B0DB
:1015300080BD00BF002143F630020191C4F20202D7
:10154000136900F5DE3043F400331361136903F4CB
:1015500000330193019B0191136843F00103136071
:10156000126802F001020192019A0C2201920222F9
:10157000CDE9022104910721059101A9FEF7B6FEEC
:1015800006B080BDFEE7000070B50368044653F85E
:10159000140F400743D40E46F1B1701C30D100BF88
:1015A000186840053ED41868400738D418684005CC
:1015B00038D41868400732D41868400532D4186807
:1015C00040072CD4186840052CD4186840074FF009
:1015D000000048BF70BDE3E71868400522D4FEF75D
:1015E00069FF00202021206384F83D1084F83E002C
:1015F000216C41F02001216484F83C00012070BD81
:10160000154600BF186840050CD4FEF753FF401B79
:10161000B042E6D8236853F8140F4007F2D50020F3
:1016200070BD00BF6FF4806018600020202120632F
:1016300084F83D1084F83E00216C41F004012164DF
:1016400084F83C00012070BDF0B581B01D460368F0
:10165000044658698FB23840B84203D1002001B027
:10166000F0BD00BF16467AB3701C29D158694005F9
:1016700040D458693840B842F0D05869400539D450
:1016800058693840B842E9D05869400532D45869A1
:101690003840B842E2D0586940052BD458693840E8
:1016A000B8424FF00000E1D139E000BFFEF702FF81
:1016B000401BB0420DD8236858693840B842CDD09D
:1016C00058694005F2D515E05869400512D4FEF777
:1016D000F1FE00202021206384F83D1084F83E00B4
:1016E000216C41F02001216484F83C00012001B00C
:1016F000F0BD00BF1868202140F4007018606FF43E
:10170000806058610020206384F83D1084F83E001A
:10171000216C41F00401216484F83C00012001B0F7
:10172000F0BD000070B50368044653F8140F0006BE
:1017300043D40E46F1B1701C30D100BF186840058B
:101740003ED41868000638D41868400538D41868A4
:10175000000632D41868400532D4186800062CD42C
:10176000186840052CD4186800064FF0000048BFE8
:1017700070BDE3E71868400522D4FEF79BFE002009
:101780002021206384F83D1084F83E00216C41F054
:101790002001216484F83C00012070BD154600BF83
:1017A000186840050CD4FEF785FE401BB042E6D811
:1017B000236853F8140F0006F2D5002070BD00BF57
:1017C0006FF48060186000202021206384F83D10B1
:1017D00084F83E00216C41F00401216484F83C004F
:1017E000012070BDFEE70000FEE70000704700002A
:1017F0007047000040F2B000C2F200000168013101
:101800000160FFF7D3BA0000B0B592B0002443F6F0
:1018100040000B94CDE90944CDE907440594CDE996
:101820000344CDE901440094C4F20200016802259A
:1018300041F080510160006800F0805000900098F5
:1018400047F200000094C4F20000016865F38F3194
:101850000160006800F44040009000980120099069
:1018600010200A900E904FF4A8700F900420109052
:101870000720119006A80695CDE90C54FFF74CFC03
:1018800020B1EFF3108072B6FEE700BF0F20CDE964
:1018900001054FF48050CDE9040401A8022103940E
:1018A000FFF72CFB20B1EFF3108072B6FEE700BF0C
:1018B00012B0B0BD4EF68850CEF20000016841F47F
:1018C000700101607047000010B504460068D4E95B
:1018D00002C22369016921F4405111430161626927
:1018E00043EA0C01E3691143C268194349F20C63EE
:1018F0009A431143C1604169A26921F4407141F2E8
:101900000043114340F48062C4F201039A424161F2
:1019100002D1FFF7B7FB01E0FFF7A0FBE1696368C5
:101920001922B1F5004FA0FB02011FD15A00DB0FB5
:10193000FEF74CFC48F21F51C5F2EB11A0FB01234E
:101940005A096FF0630302FB0300322303EBC0006C
:10195000A0FB01014FF4F87000EA111000EB021037
:10196000C1F3421122680843906010BD9A009B0F9A
:10197000FEF72CFC48F21F51C5F2EB11A0FB01232E
:101980005A096FF0630302FB0300322303EB0010DC
:10199000A0FB0101F02000EA511000EB0210C1F39E
:1019A000431122680843906010BD0000FEE700006C
:1019B000F0B583B048F68C0040F2B404C0F60C00D9
:1019C000C2F2000402AD0290642720464E212A464E
:1019D00004230097FFF79EF842F22026C0F6000687
:1019E000304600F085F84CF6CC00C0F60C000290B2
:1019F00020464E212A4604230097FFF78BF83046F5
:101A000000F076F803B0F0BD2DE9F04182B040F669
:101A10000C0040F2B404C2F62C00C2F2000401AD86
:101A200001904FF0640820464E212A460423CDF849
:101A30000080FFF76FF842F62C00C8F68C0001908A
:101A400020464E212A460423CDF80080FFF762F895
:101A500040F60C00CCF6CC00019020464E212A46E0
:101A60000423CDF80080FFF755F848F68C00C0F647
:101A70000C00019020464E212A460423CDF8008018
:101A8000FFF748F844F64C00C0F60C0001902046E1
:101A90004E212A460423CDF80080FFF73BF840F2A0
:101AA0000C064FF0FF37C2F2000600BFF019407875
:101AB000042320F00F01000101F10D0209318DF81E
:101AC000051000F10D0109308DF804208DF8061085
:101AD0008DF8070020464E212A46CDF80080FFF7FA
:101AE00019F801372F2FE1D102B0BDE8F0810000D5
:101AF0002DE9F04182B004460078D8B340F2B40535
:101B000042F62D186427C2F2000501AEC5F65D1835
:101B10001CE000BF00294BD020F00F01000101F1B3
:101B20000D0209318DF8051000F10D0109308DF815
:101B300004208DF806108DF8070028464E21324605
:101B400004230097FEF7E6FF14F8010FC1B2252920
:101B5000E0D114F8010F3038C1B20A29DCD9284687
:101B60004E2132460423CDF804800097FEF7D2FFC1
:101B70002078D1E748F68C0040F2B404C2F62C007D
:101B8000C2F2000401AD0190642620464E212A468F
:101B900004230096FEF7BEFF42F62D10C0F60D108E
:101BA000019020464E212A4604230096FEF7B2FFFC
:101BB00002B0BDE8F081000010B582B00F290446E4
:101BC00022D8012A08BF41F0400101F0700009014C
:101BD00000F18C0288308DF8050001F10C008DF8C1
:101BE000060001F108008DF8070040F2B4008DF8FE
:101BF00004204FF0640CC2F2000001AA4E2104231D
:101C0000CDF800C0FEF786FF2046FFF771FF02B057
:101C100010BD000088B00024C4F20204FFF7D4F81D
:101C2000FFF7F2FD002643F63000CDE90666029686
:101C3000C4F202000168002241F004010160016861
:101C4000202701F00401029102990296016841F0F7
:101C500080010160016801F0800102910299029601
:101C6000016841F001010160016801F00101029188
:101C700002990296016841F002010160006820218A
:101C800000F00200029002982046FEF70DFC4FF48F
:101C9000005003904FF4041003ADCDE9040604F5A1
:101CA00000602946FEF722FB0120CDE9040620460C
:101CB000294603970696FEF719FB40F2B400A4F5F7
:101CC000D631C2F2000048F2A0624FF48043C0F265
:101CD000010280E84600C0E90363C0E90566C0E987
:101CE0000766FEF7EDFB28B1EFF3108072B600BF78
:101CF000FEE700BF40F24005C2F20005A4F5DE3168
:101D0000284640F82C1F4FF4E1310C22C0E901169F
:101D1000C0E90366C0E90526C661FFF7CFFB28B11D
:101D2000EFF3108072B600BFFEE700BFFFF76CFE56
:101D3000FFF73EFE0220FEF7C5FA40F2B408C2F2F9
:101D4000000840F23C0240F6B83BC2F200024046B6
:101D5000A4210223CDF800B0FEF7DCFE05F1040952
:101D600005F11A0A0020ADF80C004046A42103AA90
:101D70000123CDF800B0FEF7CDFE0220FEF7A2FA57
:101D80004046A5214A460623CDF800B0FEF754FC94
:101D90006E7A287986F017066979AA7980F017009B
:101DA0001736EB791730F7B2A87281F0170182F07D
:101DB00017022C7A2874C7F340001731173283F0CA
:101DC0001703A87406F00100E97203F1170C84F000
:101DD00017046974E874D0B2C7F381012A73173409
:101DE000062341EA80025FFA8CF0C7F301112B60F1
:101DF00041EA8003E0B2800040EA9717504611A103
:101E000085F80DC0AC73EE73AA82EB822F83009726
:101E100000F030F8504600210122FFF7CDFEA87CEB
:101E20002A7C6B7CEF7C009050460BA1019700F060
:101E300021F8504600210022FFF7BEFE6420FEF785
:101E400041FA8FE758253033642020592530336418
:101E500020205A25303364004A5825303364204A04
:101E600059253033642043253031645A253031649C
:101E7000000000000FB4084B10B504A902AA039893
:101E800000F01CF8044602A9002000F0B8F9204632
:101E900010BC5DF814FB0000FF21000802E008C838
:101EA000121F08C1002AFAD170477047002001E0D4
:101EB00001C1121F002AFBD1704700002DE9FF4F1E
:101EC0008BB088460546002606E025280BD0DDE9C4
:101ED0000D1290476D1C761C28780028F5D10FB0A4
:101EE0003046BDE8F08F0024A146A2460122AE494B
:101EF00000E0044315F8013F203B02FA03F00842DA
:101F0000F7D128782A2810D06FF02F022878A0F176
:101F10003001092915D809EB890102EB410144F090
:101F2000020400EB01096D1CF0E758F8041B5FEA9E
:101F3000010903D544F40054C9F1000944F0020436
:101F40006D1C28782E2817D115F8010F44F00404D1
:101F50002A280ED06FF02F022878A0F1300109292D
:101F60000AD80AEB8A0102EB410100EB010A6D1C61
:101F7000F2E758F804AB6D1C28786C280FD006DC0B
:101F80004C2817D068280DD06A2814D104E0742892
:101F900010D07A280FD10DE044F400140AE044F484
:101FA000801401E044F440146978814202D104F5C0
:101FB00080146D1C6D1C2878692865D006DC00280B
:101FC0008DD0632827D0642806D15DE06E2808D024
:101FD00073282AD0752877D0DDE90D129047761C3A
:101FE000E0E0C4F30250022809D003280DD0D8F84D
:101FF000001004280DD00E6008F10408D2E0D8F8D3
:102000000010F217C1E90062F6E7D8F800100E8060
:10201000F2E70E70F0E718F8041B8DF800100020AE
:102020008DF80100EB46012003E058F804BB4FF0A7
:10203000FF3061074FF0000701D40AE07F1C5745CD
:102040000DDA8742FADB1BF807100029F6D106E00B
:102050007F1C8742FCDB1BF807100029F8D1DDE963
:102060000D23A9EB07008146214600F0B1F830446A
:10207000C61904E0DDE90D121BF8010B90477F1E25
:10208000F8D22146484688E058F8040BC4F30251C0
:102090004FF00A0B032900D100B2042900D140B24D
:1020A000002802DA40422D2102E0210505D52B212E
:1020B0008DF82410012104E006E0E10710D0202172
:1020C000F6E708AF089113E058F8040BC4F3025187
:1020D0004FF00A0B032900D180B2042900D1C0B20D
:1020E0000021EEE75946FEF7A2F8303107F8011D4E
:1020F0000028F7D1ADEB070000F1200B600702D5F7
:1021000024F4803401E04FF0010ADA4502DDAAEB45
:102110000B0000E00020824600EB0B010898014410
:10212000A9EB01000A90E00306D4DDE90D23214666
:102130000A9800F04DF806444FF0000908E009A99C
:1021400011F80900DDE90D12904709F10109761C2B
:1021500008998945F3DBE0030CD5DDE90D23214621
:102160000A9800F035F8064404E0DDE90D1230204D
:102170009047761CBAF10001AAF1010AF5DC05E0EE
:10218000DDE90D1217F8010B9047761CBBF1000139
:10219000ABF1010BF4DC0A982146DDE90D2300F0D8
:1021A00005F806446D1C97E6092801002DE9F04169
:1021B000044600251E461746880404D405E0394627
:1021C0002020B0476D1C641EF9D52846BDE8F0817B
:1021D0002DE9F041044600251E469046C80301D56E
:1021E000302700E02027880404D505E04146384622
:1021F000B0476D1C641EF9D52846BDE8F0810A6819
:10220000531C0B60107070470000000000000000BD
:10221000010203040607080900000000010203048C
:1022200020202020202020202020202020202020AE
:1022300000000000582200080000002040000000BC
:102240009C1E00089822000840000020D0040000D6
:10225000AC1E00080000000001000000100000009B
:102260000024F40002030205040404050810081405
:10227000040404140E0E041F15150A100E0E041F7C
:1022800015150A0100000000000001010004081FEC
:082290000804000040000000FA
:040000050800019559
:00000001FF
