:020000040800F2
:1000000020050020A9010008DD200008D5200008F7
:10001000D920000835070008E92200080000000088
:100020000000000000000000000000002D2100087A
:10003000990A000800000000E120000831210008B2
:10004000C3010008C3010008C3010008C301000880
:10005000C3010008C3010008C3010008C301000870
:10006000C3010008C3010008C3010008C301000860
:10007000C3010008C3010008C3010008C301000850
:10008000C3010008C3010008C3010008000000000C
:10009000000000000000000000000000C301000894
:1000A000C3010008C3010008C3010008C301000820
:1000B000C3010008C3010008C3010008C301000810
:1000C000C3010008C3010008C3010008C301000800
:1000D000C3010008C3010008C301000800000000BC
:1000E000C3010008C3010008C301000800000000AC
:1000F000000000000000000000000000C301000834
:1001000000000000C3010008C3010008C30100088B
:1001100000000000000000000000000000000000DF
:10012000C3010008C3010008C3010008C30100089F
:10013000C3010008000000000000000000000000F3
:10014000000000000000000000000000C3010008E3
:10015000C3010008C3010008C3010008C30100086F
:10016000C3010008C30100080000000000000000F7
:10017000000000000000000000000000000000007F
:1001800000000000C30100080000000000000000A3
:10019000C3010008DFF80CD000F04AFA004800471D
:1001A00071250008200500200648804706480047C2
:1001B000FEE7FEE7FEE7FEE7FEE7FEE7FEE7FEE717
:1001C000FEE7FEE7F1210008950100082DE9F05F48
:1001D0000546002092469B468846064681464024B6
:1001E0001BE0284641464746224600F058F8534651
:1001F0005A46C01A914110D311461846224600F0C3
:100200003FF82D1A67EB01084F46224601200021D6
:1002100000F036F817EB00094E41201EA4F101044E
:10022000DFDC484631462A464346BDE8F09F00F0F1
:10023000004230F000400AD0C10D01F56071C0F3FA
:10024000160042EA0151C2084007114370470020DE
:100250000146704730B50B4601460020202201249C
:1002600009E021FA02F59D4205D303FA02F5491B84
:1002700004FA02F52844151EA2F10102F1DC30BD9A
:10028000202A04DB203A00FA02F100207047914056
:10029000C2F1200320FA03F3194390407047202A4B
:1002A00004DB203A21FA02F00021704721FA02F320
:1002B000D040C2F1200291400843194670472DE911
:1002C000FE4F804681EA0300C00F0C46009021F0EB
:1002D000004123F00045B8EB0200A94105D2404699
:1002E000214690461C460B46024623F00040104330
:1002F00047D0270DC7F30A00C3F30A510290401AF2
:10030000019040286BDAC3F3130040F4801B00987F
:10031000924620B10023D2EB030A63EB0B0B01984A
:100320005946C0F140025046FFF7AAFF06460D4667
:1003300050465946019A00F08DF910EB08006141D2
:10034000002487EA115284EAE7731A4340D0009AE6
:1003500062B3019A012A4FEA075215DC001B61EBD8
:1003600002014FF0004202EA0752CDE90042001CB0
:1003700041F5801132462B4600F08DF903B0BDE8FF
:10038000F08F40462146F9E7001B61EB0201001C9B
:1003900041F5801300185B412018A2F5001747EBC8
:1003A000030140EAD570B6196D4111E06D084FEABE
:1003B000360645EAC0754FEA0752001B61EB0201A1
:1003C000001C41F5801149084FEA300000195141E5
:1003D00032462B4603B0BDE8F04F00F04DB900980F
:1003E000012240000023D0EB020263EBE07300988F
:1003F00021464FEAE074B8EB000061EB0401E9E745
:1004000083F000435BE781F0004158E72DE9FE4FA0
:1004100081EA030404F0004421F0004100944FF00D
:10042000000B23F0004350EA01045ED052EA0304BB
:100430005BD0C3F30A54C1F30A552C44A4F2F3343D
:100440000194A0FB0254C1F3130141F48011C3F3E2
:10045000130343F4801301FB024400FB034E840AA0
:10046000970A44EA815447EA8357A4FB0768029538
:100470008D0A05FB07854FEA932C04FB0C542705D6
:10048000029D4FEA065847EA1637B5EB08056EEBB2
:10049000070C870E920E47EA811742EA8312A7FBE8
:1004A0000201B6EB0B0164EB00042B0D43EA0C33A5
:1004B0005E1844EB1C50DA465146E7FB0201C5F3D7
:1004C00013044FEA0B3343EA14534FEA0432019CFE
:1004D00043EA0603A4F10C040294009CCDE900B4A5
:1004E00000F0D9F803B0BDE8F08F00200146F9E72D
:1004F0002DE9F04D81EA030404F0004B21F00045A2
:1005000014464FF0000A23F0004150EA050220D0C3
:1005100054EA01021DD0C5F30A570246C5F313037E
:10052000C1F31300C1F30A5640F4801543F480135D
:10053000A7EB0608101BD64608F2FD3873EB050042
:1005400002D308F1010801E092185B41B8F1000FF5
:1005500003DA00200146BDE8F08D00204FF4801141
:10056000064684460EE0171B73EB050705D3121BE6
:1005700063EB050306434CEA010C49084FEA3000DF
:1005800092185B4150EA0107EDD152EA030012D004
:1005900082EA040083EA0501084305D0101BAB4141
:1005A00006D20122002306E000224FF0004302E0C1
:1005B0006FF0010253101AEB06004CEB085110EBE0
:1005C0000A0041EB0B01BDE8F04D00F055B8C1F356
:1005D0000A52C1F3130140F2FF3341F480119A42F1
:1005E00002DA00200146704740F233439A42A2F2F9
:1005F000334202DC5242FFF752BEFFF741BE000019
:1006000030B5041E71F1000404DB4FF00044404299
:1006100064EB0101141E73F1000405DB1C464FF06E
:100620000043524263EB0403994208BF904230BD3D
:10063000064C074D06E0E06840F0010394E807002F
:1006400098471034AC42F6D3FFF7A8FD6432000897
:1006500084320008202A06DBCB17203A41FA02F048
:1006600043EAE07306E041FA02F3D040C2F120020F
:10067000914008431946704710B5141E73F10004E9
:1006800008DA401C41F1000192185B411A4301D184
:1006900020F0010010BD2DE9F04D92469B4611B1AE
:1006A000B1FA81F202E0B0FA80F220329046FFF710
:1006B000E7FD04460F4640EA0A0041EA0B015346B3
:1006C0005A46084313D0114653EA010019D0C8F125
:1006D00040025046FFF7E3FD05460E465046594698
:1006E0004246FFF7CDFD084305D0012004E0204637
:1006F0003946BDE8F08D0020054346EAE0762C43FC
:1007000037430A986305E40AA0EB08000022FD0ABB
:1007100044EA47540A3002D500200146E9E70105C2
:1007200010196941DDE9084500196941BDE8F04D3E
:10073000A2E70000FEE7000070B584B040F2141498
:10074000C2F2000420680E264FF0FF350DF10A02B8
:10075000D02101238DF80A60009500F05BFE08B1FE
:1007600000210BE020680DF10902D0210123009542
:1007700000F04EFB9DF8090020F0010120688DF883
:1007800009108DF80C100DF10B02D02102238DF809
:100790000B60009500F03EFE20680F260DF10D0263
:1007A000D02101238DF80D60009500F033FE08B1D3
:1007B00000210CE020684FF0FF3502AAD021012370
:1007C000009500F025FB9DF8080020F0010120684D
:1007D0008DF808108DF80E608DF80F104FF0FF3671
:1007E0000DF10E02D0210223009600F013FE01202D
:1007F00004B070BDF0B583B040F21417C2F2000728
:100800000446386800254FF0FF360DF10B02D02169
:1008100001238DF80B50CDF807500195009600F09C
:10082000F9FD18B1284603B0F0BD00BF386801AA31
:10083000D0210723009600F0EBFA18B100252846D6
:1008400003B0F0BD9DF804009DF80510C0F3021739
:1008500007EB870700F00F0000EB4700A071C1F322
:1008600002109DF8062000EB800001F00F0101EB63
:1008700040006071C2F301109DF8073040EA80002B
:1008800002F00F0101EB40009DF80810207103F009
:100890000700E070C1F3011040EA800001F00F0191
:1008A00001EB40009DF80910A070C1F3001040EA70
:1008B000800001F00F0101EB40009DF80A1060700C
:1008C000080900EB800001F00F0101EB4000012559
:1008D0002070284603B0F0BD40F21411C2F20001AE
:1008E00008607047F0B583B040F214170446112039
:1008F000C2F200078DF80B00386800254FF0FF3674
:100900000DF10B02D0210123ADF80850009600F044
:1009100081FD18B1284603B0F0BD00BF386802AAB7
:10092000D0210223009600F073FA18B10025284662
:1009300003B0F0BDBDF80800B5EE001A00BA80158E
:1009400000EE100AB8EEC00A20EE010A012584ED7F
:10095000000A284603B0F0BDF0B585B00A9FCD2649
:1009600007FB06F5ED0A05EB8504A7EB440747EA0C
:10097000051403FB06F7FF0A07EB8705A3EB450306
:1009800043EA071302FB06F7FF0A07EB8705A2EB12
:10099000450242EA071201FB06F7FF0A07EB87064A
:1009A000A1EB46010138032841EA07111ED8DFE810
:1009B00000F003070D1500BF61F07F0116E000BFD6
:1009C00061F07F0162F07F0210E000BF61F07F0103
:1009D00062F07F0263F07F0308E000BF61F07F01F7
:1009E00062F07F0263F07F0364F07F0440F214152D
:1009F0000720C2F200058DF80C0028688DF80E3033
:100A00008DF80F208DF810104FF0FF3703AAD0217A
:100A100005238DF80D40009700F0FCFC044628B13A
:100A2000B4FA84F0400905B0F0BD00BF00208DF895
:100A30000B0028680E260DF11102D02101238DF83C
:100A40001160009700F0E6FC10B105210EE000BF38
:100A500028684FF0FF370DF10B02D02101230097DA
:100A600000F0D6F99DF80B0040F0050128688DF8DC
:100A70000B108DF813104FF0FF370DF11202D0213B
:100A800002238DF81260009700F0C4FCB4FA84F0E1
:100A9000400905B0F0BD000070470000B0B5044645
:100AA00000F0F4F8054640F20C00C2F200000078B5
:100AB000611C18BF044400BF00F0E8F8401BA042CE
:100AC000FAD3B0BD2DE9F04F82B000F13E4241F2C1
:100AD000000502F1FF77C4F2020507224FEAB726AC
:100AE000A84208BF0422042E38BF4FEAB7224FF0B5
:100AF000010E002400274FF00008009208E000BF1C
:100B0000023708F10108202F04F1040400F0B4803A
:100B10000E680EFA08F916EA090FF1D0D1F804A010
:100B20000AF0030BABF10106012E19D803228668E7
:100B300002FA07FECA6826EA0E06BA40324382600D
:100B40004268CAF3001522EA090205FA08F54FEADD
:100B5000480C6FEA0E064FF0010E2A4342600BE08C
:100B60000322BA40D643BBF1030FBC4604D1BC46B6
:100B70004FF0030B24E000BFC2688D68324005FAD5
:100B80000CF52A43BBF1020FC26019D16FF00302CA
:100B900002EA5802024404F01C030F25D2F820E0B8
:100BA00005FA03FA0D692EEA0A0E05FA03F343EA81
:100BB0000E031362D1F804A04FF0010E0AF0030BEC
:100BC00002680BFA0CF332401A431AF4403F0260F9
:100BD00096D0002243F644030192C4F202031A683D
:100BE00043F6004C42F480421A601A68C4F2010CC9
:100BF00002F480420192019A28F003024FF6084A5B
:100C00006244CFF6FF7A52F80A3004F00C060F2542
:100C1000B540AB43009D05FA06F6334342F80A306F
:100C2000DCF800204B6842EA0906DD0358BF22EADF
:100C30000906CCF80060DCF804209D0342EA0906AE
:100C400058BF22EA0906CCF80460DCF80820DD026F
:100C500042EA090643F60C4558BF22EA0906CCF8D9
:100C60000860C4F201052A689B0242EA090658BFDF
:100C700022EA09062E6043E702B0BDE8F08F0000CB
:100C8000002A08BF090481617047000040F2181073
:100C9000C2F200000068704770B5B8B3044690F81F
:100CA0003D0028B9002084F83C00204600F0EEFD0D
:100CB000242084F83D002068016821F001010160D2
:100CC000016841F400410160016821F400410160C4
:100CD00000F06CFF48F28041C0F21E0140F60013A4
:100CE000D4F804E088424FF00001C0F23D0348F21E
:100CF000A16C4FF0000238BF01219842C0F2010CF4
:100D000038BF0122E64538BF0A460AB1012070BD4E
:100D10004DF68361C4F21B31A0FB01122168950CD2
:100D20004B684FF4967623F03F0343EA92437543B2
:100D300044F6D3564B60C1F262060B6AA5FB065619
:100D4000B50923F03F03E64538BF950C6A1C1A43EA
:100D50000A62CA6948F2A0664CF6FF73C0F2010647
:100D6000B64522EA03020BD801384FEA4E03B0FB26
:100D7000F3F001306FF31F30042898BF04201EE009
:100D8000A368013863B119230EFB03F3B0FBF3F042
:100D900001306FF31F3078B100F5804008E000BFEC
:100DA0000EEB4E03B0FBF3F001306FF31F3028B1B0
:100DB00000F5004003E000BF012000E001201043E7
:100DC000C8610868D4E9072320F0C0001043184325
:100DD0000860886848F2FF3204F10C0690434CCE5C
:100DE00018431043A5698860C86820F0FF003043AD
:100DF0002843C860086840F00100086000202021F6
:100E0000206484F83D10206384F83E0070BD00002B
:100E10002DE9F04182B01F46164688460446FFF78A
:100E200035FF94F83D1020291CD1054620688169C2
:100E3000890713D5FFF72AFF401B1928F6D9002090
:100E40002021206384F83D1084F83E00216C41F09D
:100E50002001216484F83C0004E000BF94F83C10B9
:100E6000012903D1022002B0BDE8F081012184F8FC
:100E70003C100168C90703D1016841F0010101601C
:100E8000016821F400610160222184F83D101021E5
:100E900084F83E100021216466626785618D21859A
:100EA0000021CFF6FF71E162E16A026811F5803F2F
:100EB00042F48062026018BF012919D1016841F42F
:100EC000807101604169089EC90724D1711C18D046
:100ED000002E00F0CB8000BFFFF7D8FE401BB042D1
:100EE00000F2C68020684169C907F5D013E000BF51
:100EF0000829E3D0216B1129E0D0E3E74169C90754
:100F000009D14169C90706D14169C90704BF4169CF
:100F10005FEAC171F2D02169B1F5804F08D148F084
:100F20000101C9B201614169890740F1CC8003E147
:100F3000062101EAD81707F1F001016141690907AB
:100F400038D44169721C01F4806113D0002940F04B
:100F5000EA80002E00F01082FFF798FE401BB0429E
:100F600000F20C8220684169090723D441694905D0
:100F7000F2D5D8E0002940F0D6804169090719D49C
:100F80004169490500F1CF804169090712D44169DF
:100F9000490500F1C880416909070BD44169490539
:100FA00000F1C1804169090704D441694905E4D5CC
:100FB000B9E000BF5FFA88F101614169890739D45E
:100FC0004169721C01F4806114D0002940F0AB80AB
:100FD000002E00F0D181FFF759FE401BB04200F215
:100FE000CD8120684169890724D441694905F2D53A
:100FF00099E000BF002940F096804169890719D423
:101000004169490500F18F804169890712D441691E
:10101000490500F18880416989070BD44169490578
:1010200000F181804169890704D441694905E4D50B
:1010300079E000BF0021019141690191816901912D
:101040000199016841F4807101604169C90734D197
:10105000711C28D056B1FFF719FE401BB04207D8CB
:1010600020684169C907F6D027E000BFFFF70EFEF0
:1010700000202021206384F83D1084F83E00216C7C
:1010800041F020012164216884F83C000868C00513
:1010900044BF4FF400702064012002B0BDE8F0812D
:1010A0004169C90709D14169C90706D14169C90721
:1010B00004BF41695FEAC171F2D047F0F1010161FB
:1010C0004169890738D44169721C01F4806111D0EB
:1010D00049BB002E00F05081FFF7D8FD401BB04205
:1010E00000F24C8120684169890725D4416949058E
:1010F000F2D518E0B9B9416989071DD4416949059C
:1011000011D44169890717D4416949050BD4416954
:10111000890711D44169490505D4416989070BD470
:1011200041694905E7D5016841F4007101606FF438
:1011300080614161042022E1218D99B1022927D0EB
:1011400001292DD1026822F48062026000220192FE
:101150004269019282690192019A026842F4007226
:10116000026028E0002101914169019181690191AA
:101170000199016841F400710160202084F83D006C
:10118000002084F83E0084F83C0002B0BDE8F08105
:10119000026822F480620260026842F4006202E0A7
:1011A000026842F480620260002201924269019268
:1011B00080690190019888B2032817D802283FD08F
:1011C000012851D1002E00F099802068014651F885
:1011D000142F520600F196800868C00600F1F280D4
:1011E000FFF754FD401BB042EFD9E0E086B100BFED
:1011F0002068014651F8142F52060ED40868C00624
:1012000000F1E080FFF742FD401BB042F0D9CEE094
:1012100020684169490640F1C3800069616A08702D
:10122000606A218D01300139606221852268638DF9
:10123000013B638553695B0770D51169017064E0F8
:1012400020684169490745D4711C6BD0002E00F01D
:10125000CD80FFF71BFD401BB04200F2C980206823
:1012600041694907F5D535E02068416949070ED441
:10127000711C65D0002E00F0B980FFF707FD401B00
:10128000B04200F2B580206841694907F5D5016890
:1012900021F4806101600069616A0870606A218DD3
:1012A00001300139606221852068618D01396185D5
:1012B000416949070ED4711C50D0002E00F0968071
:1012C000FFF7E4FC401BB04200F2928020684169C5
:1012D0004907F5D5016841F4007101600069616A50
:1012E0000870606A2268411C6162218D0139218584
:1012F000618D013961851169417006E0206841699D
:1013000049064DD50069616A0870606A218D013017
:10131000013960622185608D0138608508047FF4A1
:101320004AAF2AE741694907D4D4416949075CBFFC
:1013300041695FEA4171CDD441694907F2D5C9E7F6
:1013400041694907A3D4416949075CBF41695FEA24
:1013500041719CD441694907F2D598E74169490731
:10136000B8D4416949075CBF41695FEA4171B1D4B2
:1013700041694907F2D5ADE7FFF788FC202000213D
:101380002022216384F83D2084F83E10226C104313
:10139000206484F83C10012002B0BDE8F08100BF59
:1013A00050F8141FC90601460CD4FFF76FFC00204B
:1013B0002021206384F83D1084F83E00206C40F02A
:1013C00020000AE06FF01000086000202021206358
:1013D00084F83D1084F83E00206C2064002084F8DE
:1013E0003C00012002B0BDE8F08100BFFFF74EFCD9
:1013F00000202021206384F83D1084F83E00216CF9
:1014000041F02001216484F83C00012002B0BDE8D5
:10141000F08100002DE9F04381B01F461646884652
:101420000446FFF733FC94F83D10202920D10546EF
:1014300020688169890717D5FFF728FC401B192808
:10144000F6D900202021206384F83D1084F83E0066
:10145000216C022641F02001216484F83C003046D2
:1014600001B0BDE8F08300BF94F83C10012905D11C
:101470000226304601B0BDE8F08300BF012184F8A8
:101480003C100168C90703D1016841F00101016006
:10149000016821F400610160212184F83D101021D0
:1014A00084F83E100021216466626785618D218584
:1014B0000021CFF6FF71E162E16A11F5803F18BFAC
:1014C000012919D1016841F4807101604169DDF899
:1014D0002090C90723D119F1010116D0B9F1000FED
:1014E00046D000BFFFF7D2FB401B484542D82068DA
:1014F0004169C907F6D012E00829E3D0216B12290F
:10150000E0D0E3E74169C90709D14169C90706D1BC
:101510004169C90704BF41695FEAC171F2D021691D
:10152000B1F5804F02D1FE2161E000BF062101EA42
:10153000D811F03101614169090757D4416919F1A6
:10154000010201F480612FD0002946D1B9F1000FCA
:1015500000F04281FFF79AFB401B484500F23E81B4
:1015600020684169090741D441694905F2D534E051
:10157000FFF78CFB00202021206384F83D1084F8C5
:101580003E00216C012641F020012164216884F88D
:101590003C000868C00544BF4FF40070206430462A
:1015A00001B0BDE8F08300BFB9B9416909071DD496
:1015B0004169490511D44169090717D441694905B1
:1015C0000BD44169090711D44169490505D4416922
:1015D00009070BD441694905E7D5016841F4007159
:1015E00001606FF4806141610420F8E0FF2101EAAD
:1015F00008010161416989073AD4416919F1010281
:1016000001F4806112D051BBB9F1000F00F0E0800D
:10161000FFF73CFB401B484500F2DC802068416935
:10162000890725D441694905F2D518E0B9B941695E
:1016300089071DD44169490511D44169890717D427
:10164000416949050BD44169890711D441694905AC
:1016500005D4416989070BD441694905E7D501687B
:1016600041F4007101606FF4806141610420B6E0D3
:101670000026009641690091816900910099218DB1
:10168000002900F0958009F10108014651F8142F56
:10169000120635D4B8F1000F16D0B9F1000F00F0E2
:1016A000AF8000BF0868400500F1B280FFF7EEFA96
:1016B000401B484500F2A9802068014651F8142FCC
:1016C0001206EFD51CE000BF0A68520500F1A080A9
:1016D0000A68120614D40A68520500F199800A6853
:1016E00012060DD40A68520500F192800A681206AB
:1016F00006D40A68520500F18B800A681206E3D509
:10170000636A194611F8012B02616162618D01392A
:101710006185278D0146A7F1010CA4F828C051F876
:10172000142F52070DD55FEA0C420AD05A78A7F160
:10173000020C02619A1C6262628D013A6285A4F811
:1017400028C00A6852072FD4B8F1000F14D0B9F19D
:10175000000F7BD00868400500F18080FFF796FA03
:10176000401B484577D82068014651F8142F52078E
:10177000F0D5B4F828C017E00A6852056ED40A689C
:10178000520711D40A68520568D40A6852070BD46C
:101790000A68520562D40A68520705D40A685205DD
:1017A0005CD40A685207E7D55FEA0C417FF46DAF5D
:1017B000016841F400710160202084F83D0084F844
:1017C0003E6084F83C60304601B0BDE8F08300BF65
:1017D000FFF75CFA202002E0FFF758FA20200021F2
:1017E0002022216384F83D2084F83E10226C0126DB
:1017F0001043206484F83C10304601B0BDE8F0830B
:101800000868400504D4FFF741FA202004E000BF37
:101810006FF480600860042000212022216384F896
:101820003D2084F83E10226C1043206484F83C1064
:10183000206C042825D120680126016841F400713C
:101840000160304601B0BDE8F08300BF0868400584
:1018500004D4FFF71BFA202004E000BF6FF480607F
:101860000860042000212022216384F83D2084F8B0
:101870003E10226C1043206484F83C10206C042835
:10188000D9D00126304601B0BDE8F083B0B586B0AE
:10189000016845F20040C4F20000814202D006B067
:1018A000B0BD00BF002543F630040195C4F2020428
:1018B000216800F5D83041F002012160216801F073
:1018C0000201019101994FF440710191122102919D
:1018D00001210391032104910421059101A9FFF73E
:1018E000F1F80095206940F400102061206900F4AF
:1018F00000100090009806B0B0BD000040F20C004F
:1019000040F21811C2F20000C2F2000100780A6829
:10191000104408607047000080B543F60040C4F2F0
:101920000200016841F400710160016841F48061C6
:101930000160016841F480710160032000F076F8D5
:10194000002000F005F800F027F8002080BD00001E
:1019500070B540F20C06C2F2000640F21401327873
:10196000C2F200014FF47A730968B3FBF2F2044645
:10197000B1FBF2F1084600F033FB0F2C4FF00105EC
:1019800008D838B94FF0FF3021460022002500F07A
:1019900021F87460284670BD82B0002043F64001F3
:1019A0000190C4F202014A6842F480424A604A68E7
:1019B00002F480420192019A0090086840F0805041
:1019C0000860086800F0805000900098072002B07E
:1019D00000F02CB810B54EF60C5CCEF2000CDCF822
:1019E0000030C3F3022E8EF00704042C28BF042419
:1019F000BEF103034FF0FF3E0EFA04F438BF00239C
:101A0000A14399400EFA03F39A43114300F00F02E9
:101A1000043A624409010C3200F16043B0F1FF3F27
:101A2000C8BF03F56442117010BD00004EF60C51A2
:101A3000CEF200010A684FF6FF031A4060F30A2253
:101A400042F0806040F0FD70086070472DE9F04181
:101A5000002800F08B8043F60808C4F20208044610
:101A6000D8F8F8030D4600F00700884207D288F83E
:101A7000F853D8F8F80300F00700A84276D12068A0
:101A8000810717D5410705D5D8F8001041F4E0517A
:101A9000C8F80010010705D5D8F8001041F46041DE
:101AA000C8F80010D8F80010A26821F0F001114326
:101AB000C8F80010C0073FD1D8F8F80300F00700BD
:101AC000A84207D988F8F853D8F8F80300F00700BF
:101AD000A8424BD12068410707D5D8F80010E2682A
:101AE00021F4E0511143C8F80010000708D5D8F8D8
:101AF0000000216920F4604040EAC100C8F80000FD
:101B000000F07CF8D8F8001043F23822C1F303113A
:101B1000C0F60002515C40F2140220FA01F140F2DA
:101B20001000C2F200000068C2F200021160FFF76C
:101B30000FFF0020BDE8F0816068811E022907D2F6
:101B400058F8081C89015CBF0120BDE8F08111E054
:101B5000012807D158F8081C89035CBF0120BDE8A3
:101B6000F08107E058F8081C890703D40120BDE87C
:101B7000F08100BFD8F8001021F003010843C8F835
:101B80000000FFF783F8064641F28837D8F80000D6
:101B9000616800F00C00B0EB810F8DD0FFF776F894
:101BA000801BB842F2D90320BDE8F08140F2140056
:101BB00043F60801C2F20000C4F20201006809689D
:101BC00043F24822C1F38221C0F60002515CC840B2
:101BD0007047000040F2140043F60801C2F2000012
:101BE000C4F202010068096843F24822C1F342319D
:101BF000C0F60002515CC8407047000010B543F6C3
:101C00000404C4F20204606800F00C0142F20040D7
:101C10000829C0F2F40007D0042918BF10BD41F212
:101C20000020C0F27A0010BD216801F03F02216857
:101C300023684902C3F3881106D4A1FB00010023E5
:101C4000FEF7C4FA07E000BF41F20020C0F27A00BC
:101C50004843B0FBF2F021680222C1F3014102EBDC
:101C60004101B0FBF1F010BD2DE9F04182B0002838
:101C70006AD00446007843F60006C007C4F20206A4
:101C80000BD0B06800F00C00042840F0A180306850
:101C9000800302D56068002856D0207880071AD5C6
:101CA000B06810F00C0F09D0B06800F00C000828E4
:101CB00040F0A8807068400200F1A480306880077E
:101CC00002D5E06801283FD13068216920F0F80092
:101CD00040EAC10030602078000739D420784007FE
:101CE0004ED4A5695DB3B06800F00C00082840F040
:101CF000BD80012D28D07068E16900F480028A421D
:101D000022D1216A00F03F028A421DD147F6C071FC
:101D1000626A0140B1EB821F16D1A26A0023CFF69E
:101D2000FF7303EBC23200F440316FF30F029142B4
:101D30000AD1E16A00F07060B0EB016F04D10020BD
:101D400002B0BDE8F08100BF012002B0BDE8F08123
:101D50006069002840F20000C4F2472076D00121DB
:101D6000C0F8801EFEF792FF054600BF706F800727
:101D7000B4D4FEF78BFF401B0228F7D9DDE000BF8B
:101D8000306C10F080580AD100200190306C40F087
:101D900080503064306C00F080500190019847F220
:101DA0000007C4F200073868C00541D4386840F421
:101DB00080703860FEF76AFF054600BF3868C005CE
:101DC00036D4FEF763FF401B0228F7D9B5E000BF09
:101DD000B06800F00C00082803D1706840023FF59D
:101DE00056AF6068B0F5803F07D0B0F5A02F40F047
:101DF0008D80306840F480203060306840F480305E
:101E000030608DE0E068002852D00020C4F2472006
:101E100001210160FEF73AFF054600BF30688007E8
:101E20003FF552AFFEF732FF401B0228F6D984E09F
:101E3000A068012805D005284ED1306F40F004007D
:101E40003067306F40F0010030674FE00021C0F88C
:101E5000801EFEF71BFF0546706F80077FF53EAFC3
:101E6000FEF714FF401B0228F6D966E00027C4F2F3
:101E7000472700203866FEF709FF022D05460BD1E3
:101E8000306880015ED5FEF701FF401B02284FF04D
:101E90000300F5D954E700BF306880017FF54FAFEC
:101EA000FEF7F4FE401B02284FF00300F4D947E789
:101EB0000020C4F2472000210160FEF7E7FE05463E
:101EC000306880077FF507AFFEF7E0FE401B022871
:101ED0004FF00300F4D933E7316F002821F00101FE
:101EE0003167316F21F0040131674DD0FEF7CEFE2E
:101EF000054641F2883700BF306F800756D4FEF7A1
:101F0000C5FE401BB842F7D917E000BF3168002872
:101F100021F480313160316821F4802131604FD06B
:101F2000FEF7B4FE054600BF306880033FF5B5AE4E
:101F3000FEF7ACFE401B6428F6D9032002B0BDE8D2
:101F4000F08100BF04F11C052FCD08430021CFF61E
:101F5000FF7140EA821001EBC3316FF30F0140EAD9
:101F600005600843706001203866FEF78FFE044666
:101F7000306880013FF5E3AEFEF788FE001B0228C3
:101F80004FF00300F4D9DBE6FEF780FE054641F290
:101F9000883700BF306F800708D5FEF777FE401BFB
:101FA000B8424FF00300F5D9CAE600BFB8F1000F00
:101FB0007FF497AE306C20F08050306491E600BF23
:101FC000FEF764FE054600BF306880037FF565AE0E
:101FD000FEF75CFE401B64284FF00300F4D9AFE627
:101FE000411E0020B0EB116F1CBF012070474EF264
:101FF0001002CEF2000251604EF62351CEF20001E3
:10200000F0230B700721906011607047002804BF17
:102010000120704710B5044690F83D0028B9002013
:1020200084F83C00204600F021F8242084F83D008C
:102030002068C16821F40051C160204600F0E2F838
:102040002068016921F490410161416921F02A0170
:102050004161C16841F40051C16000202021206429
:1020600084F83D1084F83E1010BD000080B586B0A5
:10207000016844F20040C4F20000814202D006B080
:1020800080BD00BF002143F630020191C4F202027C
:10209000136900F5DE3043F400331361136903F470
:1020A00000330193019B0191136843F00103136016
:1020B000126802F001020192019A0C22019202229E
:1020C000CDE9022104910721059101A9FEF7FAFC4F
:1020D00006B080BDFEE70000FEE70000FEE700005E
:1020E0007047000070B582B040F21416C2F20006CC
:1020F0000C4631688DF807004FF0FF350DF10702EF
:102100000846D02101230095FFF784F910B1002083
:1021100002B070BD3068D021224601230095FEF741
:1021200077FEB0FA80F0400902B070BD7047000041
:1021300040F24C00C2F20000016801310160FFF77B
:10214000DDBB0000B0B592B0002443F640000B9414
:10215000CDE90944CDE907440594CDE90344CDE92F
:1021600001440094C4F202000168022541F080514C
:102170000160006800F080500090009847F2000075
:102180000094C4F20000016865F38F3101600068BB
:1021900000F44040009000980120099010200A901F
:1021A0000E904FF4A8700F9004201090072011900B
:1021B00006A80695CDE90C54FFF756FD20B1EFF3C4
:1021C000108072B6FEE700BF0F20CDE901054FF485
:1021D0008050CDE9040401A802210394FFF736FCE6
:1021E00020B1EFF3108072B6FEE700BF12B0B0BDB1
:1021F0004EF68850CEF20000016841F47001016093
:102200007047000010B504460068D4E902C2236993
:10221000016921F4405111430161626943EA0C01F3
:10222000E3691143C268194349F20C639A431143AD
:10223000C1604169A26921F4407141F20043114338
:1022400040F48062C4F201039A42416102D1FFF777
:10225000C1FC01E0FFF7AAFCE16963681922B1F54E
:10226000004FA0FB02011FD15A00DB0FFDF7AEFFAC
:1022700048F21F51C5F2EB11A0FB01235A096FF080
:10228000630302FB0300322303EBC000A0FB010148
:102290004FF4F87000EA111000EB0210C1F3421184
:1022A00008442168886010BD9A009B0FFDF78EFFDF
:1022B00048F21F51C5F2EB11A0FB01235A096FF040
:1022C000630302FB0300322303EB0010A0FB0101B8
:1022D000F02000EA511000EB0210C1F34311084452
:1022E0002168886010BD0000FEE7000080B582B064
:1022F0008DF8060040F21410C2F2000000688DF85C
:1023000007104FF0FF3C0DF10602D0210223CDF85B
:1023100000C0FFF77FF8B0FA80F0400902B080BD3E
:1023200070B584B048F68C0040F2C004C0F60C00D2
:10233000C2F200040290642602AA20464E21042321
:102340000096FFF767F843F25025C0F600052846CF
:1023500000F07EF84CF6CC00C0F60C00039003AA07
:1023600020464E2104230096FFF754F8284600F03B
:102370006FF804B070BD00002DE9F04182B040F666
:102380000C0040F2C004C2F62C00C2F200040DF1B1
:1023900004080190642620464E21424604230096FC
:1023A000FFF738F842F62C00C8F68C00019001AA1D
:1023B00020464E2104230096FFF72CF840F60C002F
:1023C000CCF6CC00019001AA20464E2104230096B1
:1023D000FFF720F848F68C00C0F60C00019001AA27
:1023E00020464E2104230096FFF714F844F64C00D3
:1023F000C0F60C00019001AA20464E21042300964D
:10240000FFF708F840F218054FF0FF37C2F2000559
:10241000E8194078042320F00F01000101F10D02BA
:1024200009318DF8051000F10D0109308DF80420F7
:102430008DF806108DF8070020464E214246009682
:10244000FEF7E8FF01372F2FE2D102B0BDE8F0819F
:102450002DE9F04182B004460078D8B340F2C005BF
:1024600042F62D186427C2F2000501AEC5F65D18CC
:102470001CE000BF00294AD020F00F01000101F14B
:102480000D0209318DF8051000F10D0109308DF8AC
:1024900004208DF806108DF8070028464E2132469C
:1024A00004230097FEF7B6FF14F8010FC1B22529E7
:1024B000E0D114F8010F3038C1B20A29DCD928461E
:1024C0004E2132460423CDF804800097FEF7A2FF88
:1024D0002078D1E748F68C0040F2C004C2F62C0008
:1024E000C2F200040190642501AA20464E21042373
:1024F0000095FEF78FFF42F62D10C0F60D100190EB
:1025000001AA20464E2104230095FEF783FF02B066
:10251000BDE8F08110B582B00F29044622D8012A07
:1025200008BF41F0400101F07000090100F18C0288
:1025300088308DF8050001F10C008DF8060001F1DE
:1025400008008DF8070040F2C0008DF804204FF01D
:10255000640CC2F2000001AA4E210423CDF800C091
:10256000FEF758FF2046FFF773FF02B010BD0000D2
:102570008EB00024C4F20204FFF7CEF9FFF7E2FDAB
:10258000002643F63000CDE90C660896C4F202003E
:102590000168002241F0040101600168202701F078
:1025A0000401089108990896016841F080010160D2
:1025B000016801F08001089108990896016841F0CE
:1025C00001010160016801F0010108910899089674
:1025D000016841F0020101600068202100F0020062
:1025E000089008982046FEF74BFB4FF400500990E6
:1025F0004FF4041009ADCDE90A0604F50060294640
:10260000FEF760FA0120CDE90A062046294609971F
:102610000C96FEF757FA40F2C000A4F5D631C2F28C
:10262000000048F2A0624FF48043C0F2010280E84B
:102630004600C0E90363C0E90566C0E90766FEF726
:102640002BFB28B1EFF3108072B600BFFEE700BF8E
:1026500040F24809C2F20009A4F5DE31484640F8CC
:10266000341F4FF4E1310C22C0E90116C0E90366C2
:10267000C0E90526C661FFF7C9FC28B1EFF3108059
:1026800072B600BFFEE700BFFFF776FEFFF748FE19
:102690000220FEF703FA40F2C00440F20008C2F242
:1026A0000004C2F2000840F6B8372046A421424692
:1026B00002230097FEF7AEFE2046FEF70DF9FEF767
:1026C0003BF81E20009003200021002200234FF041
:1026D000000BFEF741F908F10200079009F108002C
:1026E000069009F1010009F12207059028E000BFDA
:1026F000B9F81C20B9F81E30B9F82060384674A12A
:10270000009600F017F9384600210122FFF702FF7A
:1027100099F81A0099F8182099F8193099F81B605F
:10272000009038466FA1019600F004F94FF0640A5A
:10273000384600210022FFF7EDFE5046FEF7AEF9C5
:10274000D9F8040042F21071884209DB99F80000C0
:10275000C9F804B0012821D189F800B003E000BF16
:1027600099F80000E8B90798FEF744F80698FEF7D4
:10277000B9F805990F20FFF7B5FC99F80100C107DA
:1027800006D000F0FE010F2089F80110FFF7AEFD22
:1027900099F800000028ABD16DE000BF012089F856
:1027A000000040F2C005C2F200052846A42109AA93
:1027B000012340F6B834ADF824B00094FEF72AFEA9
:1027C0000220FEF76BF909F10C022846A521062329
:1027D0000094FEF71DFB99F8114099F80C0084F065
:1027E000170499F80D1099F80E2080F0170017348F
:1027F0001730E5B299F80F3089F8120081F017010F
:1028000082F0170289F81800C5F34000173117321B
:1028100089F81A0004F0010089F8131083F01703F7
:1028200099F8106089F8191089F81B00D0B2C5F327
:102830008101173341EA800086F01706A9F81C00D1
:10284000D8B2C5F30111173641EA8000A9F81E007D
:10285000F0B2800040EA951089F8142089F815300C
:1028600089F8166089F81740A9F8200099F8000047
:1028700000287FF43DAF98F8040098F8051098F808
:10288000022098F80330CDE9000138461CA1CDF8AC
:1028900008B000F04FF8384600210122FFF73AFE59
:1028A000D9F8080098F8066098F8074098F808509A
:1028B000FDF7BDFC41EC100B384618A1324623460B
:1028C0008DED020B009500F035F84FF47A7A2FE782
:1028D00058253033642020592530336420205A2570
:1028E000303364004A5825303364204A5925303348
:1028F000642043253031645A2530316400000000E3
:10290000253032642F253032642F25303264202563
:10291000316420666C6167253164000025303264C3
:102920003A253032643A2530326420543A25322E2A
:10293000326600000FB4084B10B504A902AA039830
:1029400000F0DEF8044602A9002000F070FC2046EA
:1029500010BC5DF814FB00002F32000802E008C82C
:10296000121F08C1002AFAD170477047002001E009
:1029700001C1121F002AFBD1704700002DE9FF5F43
:1029800082B00021DDE90430020DDDF840B00343E0
:1029900018D044F61050A2F2FF3242431514119899
:1029A00001281FD0A5EB0B00401C5FEA000A4FF086
:1029B00000064E4FDFF83891B046504615D5CAF1A3
:1029C000000413E0119801244AA3012801D16FEA01
:1029D0000B010298119AC0E90031C0E9024206B029
:1029E000BDE8F09FCBF10000DFE704460021404A3C
:1029F000491842EB0450CDE9001012E0E00707D07F
:102A000032463B4640464946FDF700FD8046894632
:102A100032463B4610461946FDF7F8FC06460F467F
:102A20006410002CEAD1DDE90401DDE90023BAF1EC
:102A3000000F06DAFDF7EAFC42464B46FDF7E6FCDE
:102A400005E0FDF755FD42464B46FDF751FD0446B6
:102A50000E460022284BFDF7D3FD03D84FF0FF3080
:102A6000014607E00022254B20463146FDF727FCB2
:102A7000FDF7ADFD102409E0002C0ADB0A2200233B
:102A8000FDF7A4FB039B30321A55641E50EA010285
:102A9000F2D1641C039AC4F111031444119A012A5F
:102AA00003D0012208430DD10AE0084304D00020DE
:102AB0004FF0110B119072E7A3EB0B056D1E0DE0AB
:102AC0005B4504DD4FF0000205F1010504E003DA87
:102AD0004FF00002A5F10105002AECD002981199EF
:102AE000C0E90231C0E9004579E700000000144068
:102AF0000000F03F300000000000F0430000E03F25
:102B00002DE9FF4F95B09B468946064600250FE20A
:102B1000252877D100242746F84A0121059400E0B2
:102B2000044316F8013F203B01FA03F01042F7D1AD
:102B300030782A2811D06FF02F033078A0F13002BE
:102B4000092A16D8059A44F0020402EB820203EB2C
:102B500042021044761C0590EFE759F8042B0592C9
:102B6000002A03DA504244F40054059044F0020471
:102B7000761C30782E2816D116F8010F44F0040484
:102B80002A280DD06FF02F023078A0F13003092BE6
:102B900009D807EB870302EB4303C718761CF3E75A
:102BA00059F8047B761C30786C280FD006DC4C2852
:102BB00017D068280DD06A2814D104E0742810D0EA
:102BC0007A280FD10DE044F400140AE044F4801494
:102BD00001E044F440147278824202D104F580147A
:102BE000761C761C307866280BD013DC582877D0FA
:102BF00009DC002875D04528F6D04628F4D04728AF
:102C00001AD19DE118E0632835D0642879D0652871
:102C100012D195E1702873D008DC6728F1D06928BB
:102C20006FD06E280DD06F2806D1B5E073282CD058
:102C3000752875D0782874D05A46179990476D1C1E
:102C400075E1C4F30250022809D003280DD0D9F849
:102C5000001004280DD00D6009F1040967E1D9F8CE
:102C60000010EA17C1E90052F6E7D9F800100D800C
:102C7000F2E70D70F0E719F8041B8DF80010002042
:102C80008DF80100EA46012003E059F804AB4FF04B
:102C9000FF3061074FF0000102D40DE008F101019F
:102CA0008846B9420FDA8045F8DB1AF80810002987
:102CB000F4D108E008F1010188468142FADB1AF8F4
:102CC00008100029F6D105985B46A0EB08072146BD
:102CD0003846179A00F094FA284400EB080507E0FC
:102CE0004DE029E10DE01AF8010B5A46179990477B
:102CF000B8F10108F7D25B4621463846179A13E12E
:102D000042E00A220092C4F302524FF0000A022A63
:102D100008D059F804CB032A4FEAEC710AD00DE031
:102D200029E02AE009F1070121F00702F2E802C1D7
:102D3000914609E00FFA8CFC4FEAEC71042A03D1AA
:102D40004FFA8CFC4FEAEC71002907DA0A460021A1
:102D5000DCF1000C61EB02012D2202E0220504D51A
:102D60002B228DF80420012203E0E20701D020226B
:102D7000F7E7904659E00A2102E010220DE0102109
:102D80004FF0000A00910BE010224FF0000A44F0CF
:102D900004040827009203E008224FF0000A009282
:102DA000C4F30252022A05D059F804CB0021032AA9
:102DB00008D009E009F1070121F00702F2E802C199
:102DC000914605E01FFA8CFC042A01D10CF0FF0C9F
:102DD0004FF00008220728D5702806D0009B83F00A
:102DE000100353EA0A0305D00EE040228DF80420B8
:102DF000012208E05CEA010206D030228DF80420AE
:102E00008DF8050002229046009B83F0080353EAE8
:102E10000A030AD15CEA010201D1620705D530221A
:102E20008DF804204FF001087F1E582804D034A0EC
:102E300003900EA802900DE036A0F9E753466046D5
:102E4000009AFDF7C3F984460398825C0298401EFD
:102E5000029002705CEA0100F0D1029806A9081AFB
:102E600000F1200A600702D524F4803400E0012735
:102E7000574502DDA7EB0A0000E0002000EB0A0145
:102E8000009005984144401A0590E00306D45B4643
:102E90002146179A059800F0B3F90544002706E08B
:102EA00001A85A46C05D179990476D1C7F1C474585
:102EB000F6DBE0030CD55B462146179A059800F037
:102EC0009FF9054404E030205A46179990476D1C3D
:102ED0000099481E00900029F5DC08E0029802994C
:102EE0005A460078491C0291179990476D1CBAF117
:102EF0000001AAF1010AF1DC65E1000009280100E6
:102F0000303132333435363738396162636465665F
:102F10000000000030313233343536373839414221
:102F2000434445460000000000F058F90544761C73
:102F3000307800287FF4ECAD19B02846BDE8F08F5A
:102F4000620700D4062709F1070222F0070CFCE80B
:102F50000223E14603F000485FEA080C02D00FF2BA
:102F6000702C0DE05FEA045C02D50FF2682C07E0DC
:102F70005FEAC47C02D00FF2602C01E0AFF2700C6B
:102F80004FF0FF3823F00043CDF850C065280CD037
:102F900006DC452809D046281DD047283DD13DE014
:102FA000662818D067287ED138E00021112F01DB78
:102FB000112000E0781CCDE9000106A90EA8FFF75A
:102FC000DDFCDDE90F010E9A03910021009207F16B
:102FD000010A04914DE04FF000400097CDE9011047
:102FE00006A90EA8FFF7CAFCDDE90F0203920E9BAB
:102FF00011990022DDF80CA00093049211B9791CFC
:1030000000EB010AB7EB0A0004D4C0F1FF3007F16E
:10301000010A0490AAEB0700019044E0012F00DAB6
:1030200001270021112F01DD112000E03846CDE9F4
:10303000000106A90EA8FFF7A1FCDDE90F010E9A19
:103040000391002104910092BA4621070CD4039900
:10305000514500DA8A46BAF1010F05DD009AAAF15E
:103060000101515C302908D0B84202DA10F1040F96
:1030700006DA0121CDE9011015E0AAF10101E9E725
:10308000002805DC049901440491AAEB000102E048
:10309000411C514500DD8A460499401A401C0190AC
:1030A0004FF000400290200704D40198504501DB06
:1030B000CDF8048000208DF84F0002980DF14F07E5
:1030C000B0F1004F25D02B200E9002984FF002084F
:1030D00000280CDA404202902D200E9007E00A21D1
:1030E0000298FDF7B7F83031029007F8011DB8F1EA
:1030F0000001A8F10108F2DC02980028EFD1791E46
:103100000E980870307800F0200040F0450007F875
:10311000020D12A8C01B00F107081498007800B136
:10312000012000EB0A01019801EBE0710598414490
:10313000401A401E0590E00306D45B462146179ACC
:10314000059800F05DF805441498007818B15A46C7
:10315000179990476D1CE00324D55B462146179ACA
:10316000059800F04DF805441CE00498002807DBA2
:10317000DDE90301884203DD0098405C179901E016
:10318000179930205A469047049805F10105401CD4
:1031900004900198401E019004D12E205A461799A0
:1031A00090476D1CBAF10001AAF1010ADDDC05E0CF
:1031B00017F8010B5A46179990476D1CB8F100019A
:1031C000A8F10108F4DC5B462146179A0598ABE6A6
:1031D0002D0000002B000000200000002DE9F04130
:1031E000044600251E461746880404D405E03946E7
:1031F0002020B0476D1C641EF9D52846BDE8F0813B
:103200002DE9F041044600251E469046C80301D52D
:10321000302700E02027880404D505E041463846E1
:10322000B0476D1C641EF9D52846BDE8F0810A68D8
:10323000531C0B601070704700000000000000007D
:10324000010203040607080900000000010203044C
:10325000202020202020202020202020202020206E
:103260000000000088320008000000204800000034
:103270005C290008D032000848000020D804000073
:103280006C290008000000004000150A19020D1406
:103290000000000001000000100000000024F40005
:1032A00002030205040404050810081404040414AD
:1032B0000E0E041F15150A100E0E041F15150A0117
:1032C00000000000000001010004081F08040000C5
:040000050800019559
:00000001FF
